{
  "contractName": "HashFile",
  "abi": [
    {
      "constant": false,
      "inputs": [
        {
          "internalType": "string",
          "name": "theHash",
          "type": "string"
        },
        {
          "internalType": "string",
          "name": "_name",
          "type": "string"
        },
        {
          "internalType": "string",
          "name": "_type",
          "type": "string"
        }
      ],
      "name": "store",
      "outputs": [],
      "payable": false,
      "stateMutability": "nonpayable",
      "type": "function"
    },
    {
      "constant": true,
      "inputs": [],
      "name": "retrieve",
      "outputs": [
        {
          "components": [
            {
              "internalType": "string",
              "name": "FileName",
              "type": "string"
            },
            {
              "internalType": "string",
              "name": "FileType",
              "type": "string"
            },
            {
              "internalType": "string",
              "name": "FileHash",
              "type": "string"
            }
          ],
          "internalType": "struct HashFile.HashStruct[]",
          "name": "",
          "type": "tuple[]"
        }
      ],
      "payable": false,
      "stateMutability": "view",
      "type": "function"
    }
  ],
  "bytecode": "0x608060405234801561001057600080fd5b506107a4806100206000396000f3fe608060405234801561001057600080fd5b50600436106100365760003560e01c80632e64cec11461003b5780634ae6971314610059575b600080fd5b610043610075565b604051610050919061063e565b60405180910390f35b610073600480360361006e9190810190610487565b6102ba565b005b60606000805480602002602001604051908101604052809291908181526020016000905b828210156102b15783829060005260206000209060030201604051806060016040529081600082018054600181600116156101000203166002900480601f0160208091040260200160405190810160405280929190818152602001828054600181600116156101000203166002900480156101555780601f1061012a57610100808354040283529160200191610155565b820191906000526020600020905b81548152906001019060200180831161013857829003601f168201915b50505050508152602001600182018054600181600116156101000203166002900480601f0160208091040260200160405190810160405280929190818152602001828054600181600116156101000203166002900480156101f75780601f106101cc576101008083540402835291602001916101f7565b820191906000526020600020905b8154815290600101906020018083116101da57829003601f168201915b50505050508152602001600282018054600181600116156101000203166002900480601f0160208091040260200160405190810160405280929190818152602001828054600181600116156101000203166002900480156102995780601f1061026e57610100808354040283529160200191610299565b820191906000526020600020905b81548152906001019060200180831161027c57829003601f168201915b50505050508152505081526020019060010190610099565b50505050905090565b6102c261036d565b604051806060016040528084815260200183815260200185815250905060008190806001815401808255809150509060018203906000526020600020906003020160009091929091909150600082015181600001908051906020019061032992919061038e565b50602082015181600101908051906020019061034692919061038e565b50604082015181600201908051906020019061036392919061038e565b5050505050505050565b60405180606001604052806060815260200160608152602001606081525090565b828054600181600116156101000203166002900490600052602060002090601f016020900481019282601f106103cf57805160ff19168380011785556103fd565b828001600101855582156103fd579182015b828111156103fc5782518255916020019190600101906103e1565b5b50905061040a919061040e565b5090565b61043091905b8082111561042c576000816000905550600101610414565b5090565b90565b600082601f83011261044457600080fd5b81356104576104528261068d565b610660565b9150808252602083016020830185838301111561047357600080fd5b61047e83828461070e565b50505092915050565b60008060006060848603121561049c57600080fd5b600084013567ffffffffffffffff8111156104b657600080fd5b6104c286828701610433565b935050602084013567ffffffffffffffff8111156104df57600080fd5b6104eb86828701610433565b925050604084013567ffffffffffffffff81111561050857600080fd5b61051486828701610433565b9150509250925092565b600061052a83836105e0565b905092915050565b600061053d826106c9565b61054781856106ec565b935083602082028501610559856106b9565b8060005b858110156105955784840389528151610576858261051e565b9450610581836106df565b925060208a0199505060018101905061055d565b50829750879550505050505092915050565b60006105b2826106d4565b6105bc81856106fd565b93506105cc81856020860161071d565b6105d581610750565b840191505092915050565b600060608301600083015184820360008601526105fd82826105a7565b9150506020830151848203602086015261061782826105a7565b9150506040830151848203604086015261063182826105a7565b9150508091505092915050565b600060208201905081810360008301526106588184610532565b905092915050565b6000604051905081810181811067ffffffffffffffff8211171561068357600080fd5b8060405250919050565b600067ffffffffffffffff8211156106a457600080fd5b601f19601f8301169050602081019050919050565b6000819050602082019050919050565b600081519050919050565b600081519050919050565b6000602082019050919050565b600082825260208201905092915050565b600082825260208201905092915050565b82818337600083830152505050565b60005b8381101561073b578082015181840152602081019050610720565b8381111561074a576000848401525b50505050565b6000601f19601f830116905091905056fea365627a7a72315820a07d241dd7a086cf8dea364632459b6618bea8c9605c92f80986e9b49e3667db6c6578706572696d656e74616cf564736f6c63430005100040",
  "source": "// SPDX-License-Identifier: MIT\n\npragma solidity >=0.4.21 <8.10.0;\npragma experimental ABIEncoderV2;\n\n\ncontract HashFile {\n\n    struct HashStruct {\n        string FileName;\n        string FileType;\n        string FileHash;\n    }\n    HashStruct[] private HashArray;\n\n    function store(string memory theHash, string memory _name, string memory _type) public {\n        HashStruct memory newStruct = HashStruct(_name, _type, theHash);\n        HashArray.push(newStruct);\n    }\n\n\n    function retrieve() public view returns (HashStruct[] memory) {\n        return HashArray;\n    }\n}\n",
  "sourcePath": "/home/rusian/Documents/BLockChain-App/contracts/HashFile.sol",
  "compiler": {
    "name": "solc",
    "version": "0.5.16+commit.9c3226ce.Emscripten.clang"
  },
  "schemaVersion": "3.4.8",
  "updatedAt": "2022-08-14T12:01:34.044Z",
  "networkType": "ethereum",
  "devdoc": {
    "methods": {}
  },
  "userdoc": {
    "methods": {}
  }
}