{
  "contractName": "users",
  "abi": [
    {
      "constant": false,
      "inputs": [
        {
          "internalType": "string",
          "name": "name",
          "type": "string"
        },
        {
          "internalType": "string",
          "name": "email",
          "type": "string"
        },
        {
          "internalType": "string",
          "name": "password",
          "type": "string"
        },
        {
          "internalType": "address",
          "name": "theUserAddress",
          "type": "address"
        }
      ],
      "name": "setnewUser",
      "outputs": [],
      "payable": false,
      "stateMutability": "nonpayable",
      "type": "function"
    },
    {
      "constant": true,
      "inputs": [
        {
          "internalType": "address",
          "name": "theUserAddress",
          "type": "address"
        }
      ],
      "name": "getTheUser",
      "outputs": [
        {
          "internalType": "string",
          "name": "",
          "type": "string"
        },
        {
          "internalType": "string",
          "name": "",
          "type": "string"
        }
      ],
      "payable": false,
      "stateMutability": "view",
      "type": "function"
    },
    {
      "constant": true,
      "inputs": [],
      "name": "UserAddedorNot",
      "outputs": [
        {
          "internalType": "bool",
          "name": "",
          "type": "bool"
        },
        {
          "internalType": "string",
          "name": "",
          "type": "string"
        }
      ],
      "payable": false,
      "stateMutability": "view",
      "type": "function"
    },
    {
      "constant": true,
      "inputs": [
        {
          "internalType": "string",
          "name": "receivedpass",
          "type": "string"
        },
        {
          "internalType": "address",
          "name": "theUserAddress",
          "type": "address"
        }
      ],
      "name": "checkPassword",
      "outputs": [
        {
          "internalType": "bool",
          "name": "",
          "type": "bool"
        },
        {
          "internalType": "string",
          "name": "",
          "type": "string"
        }
      ],
      "payable": false,
      "stateMutability": "view",
      "type": "function"
    },
    {
      "constant": false,
      "inputs": [
        {
          "internalType": "address",
          "name": "theUserAddress",
          "type": "address"
        },
        {
          "internalType": "string",
          "name": "theHash",
          "type": "string"
        }
      ],
      "name": "HashStore",
      "outputs": [],
      "payable": false,
      "stateMutability": "nonpayable",
      "type": "function"
    },
    {
      "constant": true,
      "inputs": [
        {
          "internalType": "address",
          "name": "theUserAddress",
          "type": "address"
        }
      ],
      "name": "HashSetReturn",
      "outputs": [
        {
          "internalType": "string[]",
          "name": "",
          "type": "string[]"
        }
      ],
      "payable": false,
      "stateMutability": "view",
      "type": "function"
    }
  ],
  "bytecode": "0x608060405234801561001057600080fd5b50611812806100206000396000f3fe608060405234801561001057600080fd5b50600436106100625760003560e01c8063140371b214610067578063192eea75146100975780633cd605d9146100c8578063b7ea5cb7146100f9578063db937fc614610115578063e17cc66a14610134575b600080fd5b610081600480360361007c9190810190610d22565b610150565b60405161008e9190611031565b60405180910390f35b6100b160048036036100ac9190810190610d22565b610244565b6040516100bf9291906110a5565b60405180910390f35b6100e260048036036100dd9190810190610de0565b610459565b6040516100f0929190611053565b60405180910390f35b610113600480360361010e9190810190610e34565b6105b0565b005b61011d6107ba565b60405161012b929190611053565b60405180910390f35b61014e60048036036101499190810190610d4b565b610873565b005b60606000600260008473ffffffffffffffffffffffffffffffffffffffff1673ffffffffffffffffffffffffffffffffffffffff16815260200190815260200160002060030160009054906101000a900473ffffffffffffffffffffffffffffffffffffffff1690508073ffffffffffffffffffffffffffffffffffffffff16632e64cec16040518163ffffffff1660e01b815260040160006040518083038186803b1580156101ff57600080fd5b505afa158015610213573d6000803e3d6000fd5b505050506040513d6000823e3d601f19601f8201168201806040525061023c9190810190610d9f565b915050919050565b60608061024f610a7e565b600260008573ffffffffffffffffffffffffffffffffffffffff1673ffffffffffffffffffffffffffffffffffffffff168152602001908152602001600020604051806080016040529081600082018054600181600116156101000203166002900480601f0160208091040260200160405190810160405280929190818152602001828054600181600116156101000203166002900480156103325780601f1061030757610100808354040283529160200191610332565b820191906000526020600020905b81548152906001019060200180831161031557829003601f168201915b50505050508152602001600182018054600181600116156101000203166002900480601f0160208091040260200160405190810160405280929190818152602001828054600181600116156101000203166002900480156103d45780601f106103a9576101008083540402835291602001916103d4565b820191906000526020600020905b8154815290600101906020018083116103b757829003601f168201915b50505050508152602001600282015481526020016003820160009054906101000a900473ffffffffffffffffffffffffffffffffffffffff1673ffffffffffffffffffffffffffffffffffffffff1673ffffffffffffffffffffffffffffffffffffffff16815250509050806000015181602001518191508090509250925050915091565b6000606060006104688461094a565b9050801561056b576000600260008673ffffffffffffffffffffffffffffffffffffffff1673ffffffffffffffffffffffffffffffffffffffff168152602001908152602001600020600201549050856040516020016104c8919061101a565b604051602081830303815290604052805190602001208114156105285760016040518060400160405280600a81526020017f5573657220466f756e64000000000000000000000000000000000000000000008152509350935050506105a9565b60006040518060400160405280600e81526020017f57726f6e672070617373776f72640000000000000000000000000000000000008152509350935050506105a9565b60006040518060400160405280601881526020017f5573657220446f6573206e6f7420657869737420f09f98b1000000000000000081525092509250505b9250929050565b60006105bb8261094a565b905080156106085761060360006040518060400160405280601381526020017f5573657220416c72656164792045786973747300000000000000000000000000815250610a4a565b6107b3565b60008360405160200161061b919061101a565b604051602081830303815290604052805190602001209050600060405161064190610abf565b604051809103906000f08015801561065d573d6000803e3d6000fd5b509050610668610a7e565b60405180608001604052808981526020018881526020018481526020018373ffffffffffffffffffffffffffffffffffffffff16815250905080600260008773ffffffffffffffffffffffffffffffffffffffff1673ffffffffffffffffffffffffffffffffffffffff16815260200190815260200160002060008201518160000190805190602001906106fd929190610acc565b50602082015181600101908051906020019061071a929190610acc565b506040820151816002015560608201518160030160006101000a81548173ffffffffffffffffffffffffffffffffffffffff021916908373ffffffffffffffffffffffffffffffffffffffff1602179055509050506107af60016040518060400160405280601781526020017f55736572204164646564205375636365737366756c6c79000000000000000000815250610a4a565b5050505b5050505050565b600060606000809054906101000a900460ff166001808054600181600116156101000203166002900480601f0160208091040260200160405190810160405280929190818152602001828054600181600116156101000203166002900480156108645780601f1061083957610100808354040283529160200191610864565b820191906000526020600020905b81548152906001019060200180831161084757829003601f168201915b50505050509050915091509091565b6000600260008473ffffffffffffffffffffffffffffffffffffffff1673ffffffffffffffffffffffffffffffffffffffff16815260200190815260200160002060030160009054906101000a900473ffffffffffffffffffffffffffffffffffffffff1690508073ffffffffffffffffffffffffffffffffffffffff1663131a0680836040518263ffffffff1660e01b81526004016109139190611083565b600060405180830381600087803b15801561092d57600080fd5b505af1158015610941573d6000803e3d6000fd5b50505050505050565b60006060600260008473ffffffffffffffffffffffffffffffffffffffff1673ffffffffffffffffffffffffffffffffffffffff1681526020019081526020016000206000018054600181600116156101000203166002900480601f016020809104026020016040519081016040528092919081815260200182805460018160011615610100020316600290048015610a245780601f106109f957610100808354040283529160200191610a24565b820191906000526020600020905b815481529060010190602001808311610a0757829003601f168201915b50505050509050600081511115610a3f576001915050610a45565b60009150505b919050565b816000806101000a81548160ff0219169083151502179055508060019080519060200190610a79929190610b4c565b505050565b6040518060800160405280606081526020016060815260200160008019168152602001600073ffffffffffffffffffffffffffffffffffffffff1681525090565b610522806112ae83390190565b828054600181600116156101000203166002900490600052602060002090601f016020900481019282601f10610b0d57805160ff1916838001178555610b3b565b82800160010185558215610b3b579182015b82811115610b3a578251825591602001919060010190610b1f565b5b509050610b489190610bcc565b5090565b828054600181600116156101000203166002900490600052602060002090601f016020900481019282601f10610b8d57805160ff1916838001178555610bbb565b82800160010185558215610bbb579182015b82811115610bba578251825591602001919060010190610b9f565b5b509050610bc89190610bcc565b5090565b610bee91905b80821115610bea576000816000905550600101610bd2565b5090565b90565b600081359050610c0081611296565b92915050565b600082601f830112610c1757600080fd5b8151610c2a610c2582611109565b6110dc565b9150818183526020840193506020810190508360005b83811015610c705781518601610c568882610c7a565b845260208401935060208301925050600181019050610c40565b5050505092915050565b600082601f830112610c8b57600080fd5b8151610c9e610c9982611131565b6110dc565b91508082526020830160208301858383011115610cba57600080fd5b610cc5838284611252565b50505092915050565b600082601f830112610cdf57600080fd5b8135610cf2610ced8261115d565b6110dc565b91508082526020830160208301858383011115610d0e57600080fd5b610d19838284611243565b50505092915050565b600060208284031215610d3457600080fd5b6000610d4284828501610bf1565b91505092915050565b60008060408385031215610d5e57600080fd5b6000610d6c85828601610bf1565b925050602083013567ffffffffffffffff811115610d8957600080fd5b610d9585828601610cce565b9150509250929050565b600060208284031215610db157600080fd5b600082015167ffffffffffffffff811115610dcb57600080fd5b610dd784828501610c06565b91505092915050565b60008060408385031215610df357600080fd5b600083013567ffffffffffffffff811115610e0d57600080fd5b610e1985828601610cce565b9250506020610e2a85828601610bf1565b9150509250929050565b60008060008060808587031215610e4a57600080fd5b600085013567ffffffffffffffff811115610e6457600080fd5b610e7087828801610cce565b945050602085013567ffffffffffffffff811115610e8d57600080fd5b610e9987828801610cce565b935050604085013567ffffffffffffffff811115610eb657600080fd5b610ec287828801610cce565b9250506060610ed387828801610bf1565b91505092959194509250565b6000610eeb8383610fe1565b905092915050565b6000610efe82611199565b610f0881856111c7565b935083602082028501610f1a85611189565b8060005b85811015610f565784840389528151610f378582610edf565b9450610f42836111ba565b925060208a01995050600181019050610f1e565b50829750879550505050505092915050565b610f7181611217565b82525050565b6000610f82826111af565b610f8c81856111e9565b9350610f9c818560208601611252565b610fa581611285565b840191505092915050565b6000610fbb826111af565b610fc581856111fa565b9350610fd5818560208601611252565b80840191505092915050565b6000610fec826111a4565b610ff681856111d8565b9350611006818560208601611252565b61100f81611285565b840191505092915050565b60006110268284610fb0565b915081905092915050565b6000602082019050818103600083015261104b8184610ef3565b905092915050565b60006040820190506110686000830185610f68565b818103602083015261107a8184610f77565b90509392505050565b6000602082019050818103600083015261109d8184610f77565b905092915050565b600060408201905081810360008301526110bf8185610f77565b905081810360208301526110d38184610f77565b90509392505050565b6000604051905081810181811067ffffffffffffffff821117156110ff57600080fd5b8060405250919050565b600067ffffffffffffffff82111561112057600080fd5b602082029050602081019050919050565b600067ffffffffffffffff82111561114857600080fd5b601f19601f8301169050602081019050919050565b600067ffffffffffffffff82111561117457600080fd5b601f19601f8301169050602081019050919050565b6000819050602082019050919050565b600081519050919050565b600081519050919050565b600081519050919050565b6000602082019050919050565b600082825260208201905092915050565b600082825260208201905092915050565b600082825260208201905092915050565b600081905092915050565b600061121082611223565b9050919050565b60008115159050919050565b600073ffffffffffffffffffffffffffffffffffffffff82169050919050565b82818337600083830152505050565b60005b83811015611270578082015181840152602081019050611255565b8381111561127f576000848401525b50505050565b6000601f19601f8301169050919050565b61129f81611205565b81146112aa57600080fd5b5056fe608060405234801561001057600080fd5b50610502806100206000396000f3fe608060405234801561001057600080fd5b50600436106100365760003560e01c8063131a06801461003b5780632e64cec114610057575b600080fd5b61005560048036036100509190810190610299565b610075565b005b61005f6100b7565b60405161006c919061039c565b60405180910390f35b60008190806001815401808255809150509060018203906000526020600020016000909192909190915090805190602001906100b29291906101a0565b505050565b60606000805480602002602001604051908101604052809291908181526020016000905b82821015610197578382906000526020600020018054600181600116156101000203166002900480601f0160208091040260200160405190810160405280929190818152602001828054600181600116156101000203166002900480156101835780601f1061015857610100808354040283529160200191610183565b820191906000526020600020905b81548152906001019060200180831161016657829003601f168201915b5050505050815260200190600101906100db565b50505050905090565b828054600181600116156101000203166002900490600052602060002090601f016020900481019282601f106101e157805160ff191683800117855561020f565b8280016001018555821561020f579182015b8281111561020e5782518255916020019190600101906101f3565b5b50905061021c9190610220565b5090565b61024291905b8082111561023e576000816000905550600101610226565b5090565b90565b600082601f83011261025657600080fd5b8135610269610264826103eb565b6103be565b9150808252602083016020830185838301111561028557600080fd5b61029083828461046c565b50505092915050565b6000602082840312156102ab57600080fd5b600082013567ffffffffffffffff8111156102c557600080fd5b6102d184828501610245565b91505092915050565b60006102e68383610363565b905092915050565b60006102f982610427565b610303818561044a565b93508360208202850161031585610417565b8060005b85811015610351578484038952815161033285826102da565b945061033d8361043d565b925060208a01995050600181019050610319565b50829750879550505050505092915050565b600061036e82610432565b610378818561045b565b935061038881856020860161047b565b610391816104ae565b840191505092915050565b600060208201905081810360008301526103b681846102ee565b905092915050565b6000604051905081810181811067ffffffffffffffff821117156103e157600080fd5b8060405250919050565b600067ffffffffffffffff82111561040257600080fd5b601f19601f8301169050602081019050919050565b6000819050602082019050919050565b600081519050919050565b600081519050919050565b6000602082019050919050565b600082825260208201905092915050565b600082825260208201905092915050565b82818337600083830152505050565b60005b8381101561049957808201518184015260208101905061047e565b838111156104a8576000848401525b50505050565b6000601f19601f830116905091905056fea365627a7a723158206e665d67ea348ee6ba78e2d3c2843f2afb8d80b971d591fb6f25c92f3ef8a1206c6578706572696d656e74616cf564736f6c63430005100040a365627a7a7231582030407598e032c271492108cc9fea116d5adb25ab9909f595aa8fd39d6930cd0d6c6578706572696d656e74616cf564736f6c63430005100040",
  "source": "// SPDX-License-Identifier: MIT\npragma solidity >=0.4.21 <8.10.0;\npragma experimental ABIEncoderV2;\nimport \"./HashFile.sol\";\n\n/**\n * The Users contract saves users information. With hashing.\n */\ncontract users {\n\n    bool private UserState;\n    string private Usermessage;\n\n    struct UserInfo {\n    string name;\n    string email;\n    bytes32 password;\n    HashFile hf;\n    }\n\n    mapping( address => UserInfo ) UserAddress;\n\n\n    function setnewUser(string memory name, string memory email, string memory password, address theUserAddress) public{\n        bool userExist = UserExists(theUserAddress);\n        if(userExist){\n            setUserAddedorNot(false, \"User Already Exists\");\n        }\n        else{\n        bytes32 pass = keccak256(abi.encodePacked(password));\n        HashFile _hf = new HashFile();\n        UserInfo memory newUser = UserInfo( name, email, pass, _hf);\n        UserAddress[theUserAddress] = newUser;\n        setUserAddedorNot(true, \"User Added Successfully\");\n        }\n    }\n\n    function getTheUser(address theUserAddress) public view returns (string memory, string memory){\n        UserInfo memory theUser = UserAddress[theUserAddress];\n        return (theUser.name, theUser.email);\n    }\n\n    function UserExists(address theUserAddress) internal view returns (bool) {\n        string memory theName= UserAddress[theUserAddress].name;\n        if(bytes(theName).length > 0){\n            return true;\n        }\n        else return false;\n            \n    }\n\n    function setUserAddedorNot(bool Userstatus, string memory message) internal {\n        UserState = Userstatus;\n        Usermessage = message;\n    }\n\n    function UserAddedorNot() public view returns(bool,string memory){\n        return (UserState, Usermessage);\n    }\n    \n    function checkPassword(string memory receivedpass, address theUserAddress) public view returns(bool, string memory){\n        bool userExist = UserExists(theUserAddress);\n        if(userExist){\n            bytes32 password = UserAddress[theUserAddress].password;\n            if(password == keccak256(abi.encodePacked(receivedpass))){\n              return (true, \"User Found\");\n            }\n            else{\n                return (false, \"Wrong password\");\n            }\n        } else {\n            return (false, \"User Does not exist 😱\");\n        }\n    }\n\n    function HashStore(address theUserAddress, string memory theHash) public {\n        HashFile hashObj = UserAddress[theUserAddress].hf;\n        hashObj.store(theHash);\n    }\n\n    function HashSetReturn(address theUserAddress) public view returns(string[] memory){\n        HashFile hashObj = UserAddress[theUserAddress].hf;\n        return hashObj.retrieve();\n\n    }\n\n}\n",
  "sourcePath": "/home/rusian/Documents/blockdev/contracts/users.sol",
  "compiler": {
    "name": "solc",
    "version": "0.5.16+commit.9c3226ce.Emscripten.clang"
  },
  "schemaVersion": "3.4.7",
  "updatedAt": "2022-07-12T18:39:01.930Z",
  "networkType": "ethereum",
  "devdoc": {
    "methods": {}
  },
  "userdoc": {
    "methods": {},
    "notice": "The Users contract saves users information. With hashing."
  }
}