{
  "contractName": "users",
  "abi": [
    {
      "constant": false,
      "inputs": [
        {
          "internalType": "string",
          "name": "name",
          "type": "string"
        },
        {
          "internalType": "string",
          "name": "email",
          "type": "string"
        },
        {
          "internalType": "string",
          "name": "password",
          "type": "string"
        }
      ],
      "name": "setnewUser",
      "outputs": [],
      "payable": false,
      "stateMutability": "nonpayable",
      "type": "function"
    },
    {
      "constant": true,
      "inputs": [],
      "name": "getTheUser",
      "outputs": [
        {
          "internalType": "string",
          "name": "",
          "type": "string"
        },
        {
          "internalType": "string",
          "name": "",
          "type": "string"
        }
      ],
      "payable": false,
      "stateMutability": "view",
      "type": "function"
    },
    {
      "constant": true,
      "inputs": [
        {
          "internalType": "string",
          "name": "receivedpass",
          "type": "string"
        }
      ],
      "name": "checkPassword",
      "outputs": [
        {
          "internalType": "bool",
          "name": "",
          "type": "bool"
        },
        {
          "internalType": "string",
          "name": "",
          "type": "string"
        }
      ],
      "payable": false,
      "stateMutability": "view",
      "type": "function"
    }
  ],
  "bytecode": "0x608060405234801561001057600080fd5b50610b8f806100206000396000f3fe608060405234801561001057600080fd5b50600436106100405760003560e01c8062d391441461004557806387e16d4d1461022e578063f4d954c21461036d575b600080fd5b61022c6004803603606081101561005b57600080fd5b810190808035906020019064010000000081111561007857600080fd5b82018360208201111561008a57600080fd5b803590602001918460018302840111640100000000831117156100ac57600080fd5b91908080601f016020809104026020016040519081016040528093929190818152602001838380828437600081840152601f19601f8201169050808301925050505050505091929192908035906020019064010000000081111561010f57600080fd5b82018360208201111561012157600080fd5b8035906020019184600183028401116401000000008311171561014357600080fd5b91908080601f016020809104026020016040519081016040528093929190818152602001838380828437600081840152601f19601f820116905080830192505050505050509192919290803590602001906401000000008111156101a657600080fd5b8201836020820111156101b857600080fd5b803590602001918460018302840111640100000000831117156101da57600080fd5b91908080601f016020809104026020016040519081016040528093929190818152602001838380828437600081840152601f19601f82011690508083019250505050505050919291929050505061045c565b005b6102e76004803603602081101561024457600080fd5b810190808035906020019064010000000081111561026157600080fd5b82018360208201111561027357600080fd5b8035906020019184600183028401116401000000008311171561029557600080fd5b91908080601f016020809104026020016040519081016040528093929190818152602001838380828437600081840152601f19601f8201169050808301925050505050505091929192905050506105b1565b604051808315151515815260200180602001828103825283818151815260200191508051906020019080838360005b83811015610331578082015181840152602081019050610316565b50505050905090810190601f16801561035e5780820380516001836020036101000a031916815260200191505b50935050505060405180910390f35b61037561074f565b604051808060200180602001838103835285818151815260200191508051906020019080838360005b838110156103b957808201518184015260208101905061039e565b50505050905090810190601f1680156103e65780820380516001836020036101000a031916815260200191505b50838103825284818151815260200191508051906020019080838360005b8381101561041f578082015181840152602081019050610404565b50505050905090810190601f16801561044c5780820380516001836020036101000a031916815260200191505b5094505050505060405180910390f35b600061046661090c565b9050801561047d57610476610a09565b50506105ab565b6000826040516020018082805190602001908083835b602083106104b65780518252602082019150602081019050602083039250610493565b6001836020036101000a0380198251168184511680821785525050505050509050019150506040516020818303038152906040528051906020012090506104fb610a91565b6040518060600160405280878152602001868152602001838152509050806000803373ffffffffffffffffffffffffffffffffffffffff1673ffffffffffffffffffffffffffffffffffffffff1681526020019081526020016000206000820151816000019080519060200190610573929190610ab5565b506020820151816001019080519060200190610590929190610ab5565b50604082015181600201559050506105a6610a4d565b505050505b50505050565b6000606060006105bf61090c565b9050801561070c5760008060003373ffffffffffffffffffffffffffffffffffffffff1673ffffffffffffffffffffffffffffffffffffffff168152602001908152602001600020600201549050846040516020018082805190602001908083835b602083106106445780518252602082019150602081019050602083039250610621565b6001836020036101000a038019825116818451168082178552505050505050905001915050604051602081830303815290604052805190602001208114156106c95760016040518060400160405280600a81526020017f5573657220466f756e640000000000000000000000000000000000000000000081525093509350505061074a565b60006040518060400160405280600e81526020017f57726f6e672070617373776f726400000000000000000000000000000000000081525093509350505061074a565b60006040518060400160405280601881526020017f5573657220446f6573206e6f7420657869737420f09f98b1000000000000000081525092509250505b915091565b60608061075a610a91565b6000803373ffffffffffffffffffffffffffffffffffffffff1673ffffffffffffffffffffffffffffffffffffffff168152602001908152602001600020604051806060016040529081600082018054600181600116156101000203166002900480601f01602080910402602001604051908101604052809291908181526020018280546001816001161561010002031660029004801561083c5780601f106108115761010080835404028352916020019161083c565b820191906000526020600020905b81548152906001019060200180831161081f57829003601f168201915b50505050508152602001600182018054600181600116156101000203166002900480601f0160208091040260200160405190810160405280929190818152602001828054600181600116156101000203166002900480156108de5780601f106108b3576101008083540402835291602001916108de565b820191906000526020600020905b8154815290600101906020018083116108c157829003601f168201915b5050505050815260200160028201548152505090508060000151816020015181915080905092509250509091565b600060606000803373ffffffffffffffffffffffffffffffffffffffff1673ffffffffffffffffffffffffffffffffffffffff1681526020019081526020016000206000018054600181600116156101000203166002900480601f0160208091040260200160405190810160405280929190818152602001828054600181600116156101000203166002900480156109e55780601f106109ba576101008083540402835291602001916109e5565b820191906000526020600020905b8154815290600101906020018083116109c857829003601f168201915b50505050509050600081511115610a00576001915050610a06565b60009150505b90565b6000606060006040518060400160405280601481526020017f5573657220416c72656164792045786973747321000000000000000000000000815250915091509091565b6000606060016040518060400160405280600a81526020017f5573657220416464656400000000000000000000000000000000000000000000815250915091509091565b60405180606001604052806060815260200160608152602001600080191681525090565b828054600181600116156101000203166002900490600052602060002090601f016020900481019282601f10610af657805160ff1916838001178555610b24565b82800160010185558215610b24579182015b82811115610b23578251825591602001919060010190610b08565b5b509050610b319190610b35565b5090565b610b5791905b80821115610b53576000816000905550600101610b3b565b5090565b9056fea265627a7a72315820e38a4654265cfbd27fc7b0320f1ce380f799f04118057bb87581ba9ee4aedd8064736f6c63430005100032",
  "source": "// SPDX-License-Identifier: MIT\npragma solidity >=0.4.21 <8.10.0;\n\n/**\n * The Users contract saves users information. With hashing.\n */\ncontract users {\n\n  \n    struct UserInfo {\n    string name;\n    string email;\n    bytes32 password;\n    }\n\n    mapping( address => UserInfo ) UserAddress;\n\n\n    function setnewUser(string memory name, string memory email, string memory password) public{\n        bool userExist = UserExists();\n        if(userExist){\n            UserNotAdded();\n        }\n        else{\n        bytes32 pass = keccak256(abi.encodePacked(password));\n        UserInfo memory newUser = UserInfo( name, email, pass);\n        UserAddress[msg.sender] = newUser;\n        UserAdded();\n        }\n    }\n\n    function getTheUser() public view returns (string memory, string memory){\n        UserInfo memory theUser = UserAddress[msg.sender];\n        return (theUser.name, theUser.email);\n    }\n\n    function UserExists() internal view returns (bool) {\n        string memory theName= UserAddress[msg.sender].name;\n        if(bytes(theName).length > 0){\n            return true;\n        }\n        else return false;\n            \n    }\n\n    function UserAdded() internal pure returns(bool,string memory){\n        return (true, \"User Added\");\n    }\n    function UserNotAdded() internal pure returns(bool, string memory){\n        return (false, \"User Already Exists!\");\n    }\n    \n    function checkPassword(string memory receivedpass) public view returns(bool, string memory){\n        bool userExist = UserExists();\n        if(userExist){\n            bytes32 password = UserAddress[msg.sender].password;\n            if(password == keccak256(abi.encodePacked(receivedpass))){\n              return (true, \"User Found\");\n            }\n            else{\n                return (false, \"Wrong password\");\n            }\n        } else {\n            return (false, \"User Does not exist 😱\");\n        }\n    }\n        \n\n}\n",
  "sourcePath": "/home/rusian/Documents/blockdev/contracts/users.sol",
  "compiler": {
    "name": "solc",
    "version": "0.5.16+commit.9c3226ce.Emscripten.clang"
  },
  "schemaVersion": "3.4.7",
  "updatedAt": "2022-06-28T07:39:23.594Z",
  "networkType": "ethereum",
  "devdoc": {
    "methods": {}
  },
  "userdoc": {
    "methods": {},
    "notice": "The Users contract saves users information. With hashing."
  }
}