{
  "contractName": "users",
  "abi": [
    {
      "constant": false,
      "inputs": [
        {
          "internalType": "string",
          "name": "name",
          "type": "string"
        },
        {
          "internalType": "string",
          "name": "email",
          "type": "string"
        },
        {
          "internalType": "string",
          "name": "password",
          "type": "string"
        },
        {
          "internalType": "address",
          "name": "theUserAddress",
          "type": "address"
        }
      ],
      "name": "setnewUser",
      "outputs": [],
      "payable": false,
      "stateMutability": "nonpayable",
      "type": "function"
    },
    {
      "constant": true,
      "inputs": [
        {
          "internalType": "address",
          "name": "theUserAddress",
          "type": "address"
        }
      ],
      "name": "getTheUser",
      "outputs": [
        {
          "internalType": "string",
          "name": "",
          "type": "string"
        },
        {
          "internalType": "string",
          "name": "",
          "type": "string"
        }
      ],
      "payable": false,
      "stateMutability": "view",
      "type": "function"
    },
    {
      "constant": true,
      "inputs": [],
      "name": "UserAddedorNot",
      "outputs": [
        {
          "internalType": "bool",
          "name": "",
          "type": "bool"
        },
        {
          "internalType": "string",
          "name": "",
          "type": "string"
        }
      ],
      "payable": false,
      "stateMutability": "view",
      "type": "function"
    },
    {
      "constant": true,
      "inputs": [
        {
          "internalType": "string",
          "name": "receivedpass",
          "type": "string"
        },
        {
          "internalType": "address",
          "name": "theUserAddress",
          "type": "address"
        }
      ],
      "name": "checkPassword",
      "outputs": [
        {
          "internalType": "bool",
          "name": "",
          "type": "bool"
        },
        {
          "internalType": "string",
          "name": "",
          "type": "string"
        }
      ],
      "payable": false,
      "stateMutability": "view",
      "type": "function"
    }
  ],
  "bytecode": "0x608060405234801561001057600080fd5b50610e00806100206000396000f3fe608060405234801561001057600080fd5b506004361061004c5760003560e01c8063192eea75146100515780633cd605d91461017a578063b7ea5cb7146102d9578063db937fc6146104e2575b600080fd5b6100936004803603602081101561006757600080fd5b81019080803573ffffffffffffffffffffffffffffffffffffffff169060200190929190505050610570565b604051808060200180602001838103835285818151815260200191508051906020019080838360005b838110156100d75780820151818401526020810190506100bc565b50505050905090810190601f1680156101045780820380516001836020036101000a031916815260200191505b50838103825284818151815260200191508051906020019080838360005b8381101561013d578082015181840152602081019050610122565b50505050905090810190601f16801561016a5780820380516001836020036101000a031916815260200191505b5094505050505060405180910390f35b6102536004803603604081101561019057600080fd5b81019080803590602001906401000000008111156101ad57600080fd5b8201836020820111156101bf57600080fd5b803590602001918460018302840111640100000000831117156101e157600080fd5b91908080601f016020809104026020016040519081016040528093929190818152602001838380828437600081840152601f19601f820116905080830192505050505050509192919290803573ffffffffffffffffffffffffffffffffffffffff16906020019092919050505061072f565b604051808315151515815260200180602001828103825283818151815260200191508051906020019080838360005b8381101561029d578082015181840152602081019050610282565b50505050905090810190601f1680156102ca5780820380516001836020036101000a031916815260200191505b50935050505060405180910390f35b6104e0600480360360808110156102ef57600080fd5b810190808035906020019064010000000081111561030c57600080fd5b82018360208201111561031e57600080fd5b8035906020019184600183028401116401000000008311171561034057600080fd5b91908080601f016020809104026020016040519081016040528093929190818152602001838380828437600081840152601f19601f820116905080830192505050505050509192919290803590602001906401000000008111156103a357600080fd5b8201836020820111156103b557600080fd5b803590602001918460018302840111640100000000831117156103d757600080fd5b91908080601f016020809104026020016040519081016040528093929190818152602001838380828437600081840152601f19601f8201169050808301925050505050505091929192908035906020019064010000000081111561043a57600080fd5b82018360208201111561044c57600080fd5b8035906020019184600183028401116401000000008311171561046e57600080fd5b91908080601f016020809104026020016040519081016040528093929190818152602001838380828437600081840152601f19601f820116905080830192505050505050509192919290803573ffffffffffffffffffffffffffffffffffffffff1690602001909291905050506108d1565b005b6104ea610a95565b604051808315151515815260200180602001828103825283818151815260200191508051906020019080838360005b83811015610534578082015181840152602081019050610519565b50505050905090810190601f1680156105615780820380516001836020036101000a031916815260200191505b50935050505060405180910390f35b60608061057b610c82565b600260008573ffffffffffffffffffffffffffffffffffffffff1673ffffffffffffffffffffffffffffffffffffffff168152602001908152602001600020604051806060016040529081600082018054600181600116156101000203166002900480601f01602080910402602001604051908101604052809291908181526020018280546001816001161561010002031660029004801561065e5780601f106106335761010080835404028352916020019161065e565b820191906000526020600020905b81548152906001019060200180831161064157829003601f168201915b50505050508152602001600182018054600181600116156101000203166002900480601f0160208091040260200160405190810160405280929190818152602001828054600181600116156101000203166002900480156107005780601f106106d557610100808354040283529160200191610700565b820191906000526020600020905b8154815290600101906020018083116106e357829003601f168201915b505050505081526020016002820154815250509050806000015181602001518191508090509250925050915091565b60006060600061073e84610b4e565b9050801561088c576000600260008673ffffffffffffffffffffffffffffffffffffffff1673ffffffffffffffffffffffffffffffffffffffff168152602001908152602001600020600201549050856040516020018082805190602001908083835b602083106107c457805182526020820191506020810190506020830392506107a1565b6001836020036101000a038019825116818451168082178552505050505050905001915050604051602081830303815290604052805190602001208114156108495760016040518060400160405280600a81526020017f5573657220466f756e64000000000000000000000000000000000000000000008152509350935050506108ca565b60006040518060400160405280600e81526020017f57726f6e672070617373776f72640000000000000000000000000000000000008152509350935050506108ca565b60006040518060400160405280601881526020017f5573657220446f6573206e6f7420657869737420f09f98b1000000000000000081525092509250505b9250929050565b60006108dc82610b4e565b905080156109295761092460006040518060400160405280601381526020017f5573657220416c72656164792045786973747300000000000000000000000000815250610c4e565b610a8e565b6000836040516020018082805190602001908083835b60208310610962578051825260208201915060208101905060208303925061093f565b6001836020036101000a0380198251168184511680821785525050505050509050019150506040516020818303038152906040528051906020012090506109a7610c82565b604051806060016040528088815260200187815260200183815250905080600260008673ffffffffffffffffffffffffffffffffffffffff1673ffffffffffffffffffffffffffffffffffffffff1681526020019081526020016000206000820151816000019080519060200190610a20929190610ca6565b506020820151816001019080519060200190610a3d929190610ca6565b5060408201518160020155905050610a8b60016040518060400160405280601781526020017f55736572204164646564205375636365737366756c6c79000000000000000000815250610c4e565b50505b5050505050565b600060606000809054906101000a900460ff166001808054600181600116156101000203166002900480601f016020809104026020016040519081016040528092919081815260200182805460018160011615610100020316600290048015610b3f5780601f10610b1457610100808354040283529160200191610b3f565b820191906000526020600020905b815481529060010190602001808311610b2257829003601f168201915b50505050509050915091509091565b60006060600260008473ffffffffffffffffffffffffffffffffffffffff1673ffffffffffffffffffffffffffffffffffffffff1681526020019081526020016000206000018054600181600116156101000203166002900480601f016020809104026020016040519081016040528092919081815260200182805460018160011615610100020316600290048015610c285780601f10610bfd57610100808354040283529160200191610c28565b820191906000526020600020905b815481529060010190602001808311610c0b57829003601f168201915b50505050509050600081511115610c43576001915050610c49565b60009150505b919050565b816000806101000a81548160ff0219169083151502179055508060019080519060200190610c7d929190610d26565b505050565b60405180606001604052806060815260200160608152602001600080191681525090565b828054600181600116156101000203166002900490600052602060002090601f016020900481019282601f10610ce757805160ff1916838001178555610d15565b82800160010185558215610d15579182015b82811115610d14578251825591602001919060010190610cf9565b5b509050610d229190610da6565b5090565b828054600181600116156101000203166002900490600052602060002090601f016020900481019282601f10610d6757805160ff1916838001178555610d95565b82800160010185558215610d95579182015b82811115610d94578251825591602001919060010190610d79565b5b509050610da29190610da6565b5090565b610dc891905b80821115610dc4576000816000905550600101610dac565b5090565b9056fea265627a7a7231582075846b49b7f24673e9007be51e6cc1b8935b8025f0b3f2af750c7ea55d55f68064736f6c63430005100032",
  "source": "// SPDX-License-Identifier: MIT\npragma solidity >=0.4.21 <8.10.0;\n\n/**\n * The Users contract saves users information. With hashing.\n */\ncontract users {\n\n    bool private UserState;\n    string private Usermessage;\n\n    struct UserInfo {\n    string name;\n    string email;\n    bytes32 password;\n    }\n\n    mapping( address => UserInfo ) UserAddress;\n\n\n    function setnewUser(string memory name, string memory email, string memory password, address theUserAddress) public{\n        bool userExist = UserExists(theUserAddress);\n        if(userExist){\n            setUserAddedorNot(false, \"User Already Exists\");\n        }\n        else{\n        bytes32 pass = keccak256(abi.encodePacked(password));\n        UserInfo memory newUser = UserInfo( name, email, pass);\n        UserAddress[theUserAddress] = newUser;\n        setUserAddedorNot(true, \"User Added Successfully\");\n        }\n    }\n\n    function getTheUser(address theUserAddress) public view returns (string memory, string memory){\n        UserInfo memory theUser = UserAddress[theUserAddress];\n        return (theUser.name, theUser.email);\n    }\n\n    function UserExists(address theUserAddress) internal view returns (bool) {\n        string memory theName= UserAddress[theUserAddress].name;\n        if(bytes(theName).length > 0){\n            return true;\n        }\n        else return false;\n            \n    }\n\n    function setUserAddedorNot(bool Userstatus, string memory message) internal {\n        UserState = Userstatus;\n        Usermessage = message;\n    }\n\n    function UserAddedorNot() public view returns(bool,string memory){\n        return (UserState, Usermessage);\n    }\n    \n    function checkPassword(string memory receivedpass, address theUserAddress) public view returns(bool, string memory){\n        bool userExist = UserExists(theUserAddress);\n        if(userExist){\n            bytes32 password = UserAddress[theUserAddress].password;\n            if(password == keccak256(abi.encodePacked(receivedpass))){\n              return (true, \"User Found\");\n            }\n            else{\n                return (false, \"Wrong password\");\n            }\n        } else {\n            return (false, \"User Does not exist 😱\");\n        }\n    }\n\n\n}\n",
  "sourcePath": "/home/rusian/Documents/blockdev/contracts/users.sol",
  "compiler": {
    "name": "solc",
    "version": "0.5.16+commit.9c3226ce.Emscripten.clang"
  },
  "schemaVersion": "3.4.7",
  "updatedAt": "2022-07-12T04:56:47.347Z",
  "networkType": "ethereum",
  "devdoc": {
    "methods": {}
  },
  "userdoc": {
    "methods": {},
    "notice": "The Users contract saves users information. With hashing."
  }
}