{
  "contractName": "users",
  "abi": [
    {
      "constant": false,
      "inputs": [
        {
          "internalType": "string",
          "name": "pass",
          "type": "string"
        }
      ],
      "name": "setPassword",
      "outputs": [],
      "payable": false,
      "stateMutability": "nonpayable",
      "type": "function"
    },
    {
      "constant": true,
      "inputs": [
        {
          "internalType": "string",
          "name": "receivedpass",
          "type": "string"
        }
      ],
      "name": "checkPassword",
      "outputs": [
        {
          "internalType": "bool",
          "name": "",
          "type": "bool"
        },
        {
          "internalType": "string",
          "name": "",
          "type": "string"
        }
      ],
      "payable": false,
      "stateMutability": "view",
      "type": "function"
    }
  ],
  "bytecode": "0x608060405234801561001057600080fd5b50610676806100206000396000f3fe608060405234801561001057600080fd5b50600436106100365760003560e01c8063290bb4531461003b57806387e16d4d146100f6575b600080fd5b6100f46004803603602081101561005157600080fd5b810190808035906020019064010000000081111561006e57600080fd5b82018360208201111561008057600080fd5b803590602001918460018302840111640100000000831117156100a257600080fd5b91908080601f016020809104026020016040519081016040528093929190818152602001838380828437600081840152601f19601f820116905080830192505050505050509192919290505050610235565b005b6101af6004803603602081101561010c57600080fd5b810190808035906020019064010000000081111561012957600080fd5b82018360208201111561013b57600080fd5b8035906020019184600183028401116401000000008311171561015d57600080fd5b91908080601f016020809104026020016040519081016040528093929190818152602001838380828437600081840152601f19601f82011690508083019250505050505050919291929050505061028b565b604051808315151515815260200180602001828103825283818151815260200191508051906020019080838360005b838110156101f95780820151818401526020810190506101de565b50505050905090810190601f1680156102265780820380516001836020036101000a031916815260200191505b50935050505060405180910390f35b806000803373ffffffffffffffffffffffffffffffffffffffff1673ffffffffffffffffffffffffffffffffffffffff168152602001908152602001600020908051906020019061028792919061059c565b5050565b60006060600061029961052f565b905080156104ec5760606000803373ffffffffffffffffffffffffffffffffffffffff1673ffffffffffffffffffffffffffffffffffffffff1681526020019081526020016000208054600181600116156101000203166002900480601f0160208091040260200160405190810160405280929190818152602001828054600181600116156101000203166002900480156103755780601f1061034a57610100808354040283529160200191610375565b820191906000526020600020905b81548152906001019060200180831161035857829003601f168201915b50505050509050846040516020018082805190602001908083835b602083106103b35780518252602082019150602081019050602083039250610390565b6001836020036101000a03801982511681845116808217855250505050505090500191505060405160208183030381529060405280519060200120816040516020018082805190602001908083835b602083106104255780518252602082019150602081019050602083039250610402565b6001836020036101000a0380198251168184511680821785525050505050509050019150506040516020818303038152906040528051906020012014156104a95760016040518060400160405280600a81526020017f4c6f6767696e6720696e0000000000000000000000000000000000000000000081525093509350505061052a565b60006040518060400160405280601381526020017f50617373776f72642069732077726f6e6720210000000000000000000000000081525093509350505061052a565b60006040518060400160405280601881526020017f5573657220446f6573206e6f7420657869737420f09f98b1000000000000000081525092509250505b915091565b6000806000803373ffffffffffffffffffffffffffffffffffffffff1673ffffffffffffffffffffffffffffffffffffffff16815260200190815260200160002080546001816001161561010002031660029004905011156105945760019050610599565b600090505b90565b828054600181600116156101000203166002900490600052602060002090601f016020900481019282601f106105dd57805160ff191683800117855561060b565b8280016001018555821561060b579182015b8281111561060a5782518255916020019190600101906105ef565b5b509050610618919061061c565b5090565b61063e91905b8082111561063a576000816000905550600101610622565b5090565b9056fea265627a7a72315820544857ccfc974ff9f7389477b8342cee1fc5119a2b08455e956542a280f8ecfe64736f6c63430005100032",
  "source": "// SPDX-License-Identifier: MIT\npragma solidity >=0.4.21 <8.10.0;\n\n/**\n * The Users contract saves users information. With hashing.\n */\ncontract users {\n\n  mapping( address => string ) UserAddress;\n\n    function setPassword(string memory pass) public{\n        UserAddress[msg.sender] = pass;\n    }\n\n    function UserExists() internal view returns (bool){\n        if(bytes(UserAddress[msg.sender]).length > 0){\n            return true;\n        }\n        else return false;\n            \n    }\n    \n    function checkPassword(string memory receivedpass) public view returns(bool, string memory){\n        bool userExist = UserExists();\n        if(userExist){\n            string memory ourpassword = UserAddress[msg.sender];\n            if(keccak256(abi.encodePacked(ourpassword)) == keccak256(abi.encodePacked(receivedpass))){\n                return(true, \"Logging in\");\n            }\n            else{\n                return(false, \"Password is wrong !\");\n            }\n        } else {\n            return(false, \"User Does not exist 😱\");\n        }\n    }\n\n}\n",
  "sourcePath": "/home/rusian/Documents/blockdev/contracts/users.sol",
  "compiler": {
    "name": "solc",
    "version": "0.5.16+commit.9c3226ce.Emscripten.clang"
  },
  "schemaVersion": "3.4.7",
  "updatedAt": "2022-06-26T08:11:37.873Z",
  "networkType": "ethereum",
  "devdoc": {
    "methods": {}
  },
  "userdoc": {
    "methods": {},
    "notice": "The Users contract saves users information. With hashing."
  }
}