{
  "contractName": "users",
  "abi": [
    {
      "constant": false,
      "inputs": [
        {
          "internalType": "string",
          "name": "name",
          "type": "string"
        },
        {
          "internalType": "string",
          "name": "email",
          "type": "string"
        },
        {
          "internalType": "string",
          "name": "password",
          "type": "string"
        }
      ],
      "name": "setnewUser",
      "outputs": [],
      "payable": false,
      "stateMutability": "nonpayable",
      "type": "function"
    },
    {
      "constant": true,
      "inputs": [],
      "name": "getTheUser",
      "outputs": [
        {
          "internalType": "string",
          "name": "",
          "type": "string"
        },
        {
          "internalType": "string",
          "name": "",
          "type": "string"
        }
      ],
      "payable": false,
      "stateMutability": "view",
      "type": "function"
    },
    {
      "constant": true,
      "inputs": [],
      "name": "UserAddedorNot",
      "outputs": [
        {
          "internalType": "bool",
          "name": "",
          "type": "bool"
        },
        {
          "internalType": "string",
          "name": "",
          "type": "string"
        }
      ],
      "payable": false,
      "stateMutability": "view",
      "type": "function"
    },
    {
      "constant": true,
      "inputs": [
        {
          "internalType": "string",
          "name": "receivedpass",
          "type": "string"
        }
      ],
      "name": "checkPassword",
      "outputs": [
        {
          "internalType": "bool",
          "name": "",
          "type": "bool"
        },
        {
          "internalType": "string",
          "name": "",
          "type": "string"
        }
      ],
      "payable": false,
      "stateMutability": "view",
      "type": "function"
    }
  ],
  "bytecode": "0x608060405234801561001057600080fd5b50610d7d806100206000396000f3fe608060405234801561001057600080fd5b506004361061004b5760003560e01c8062d391441461005057806387e16d4d14610239578063db937fc614610378578063f4d954c214610406575b600080fd5b6102376004803603606081101561006657600080fd5b810190808035906020019064010000000081111561008357600080fd5b82018360208201111561009557600080fd5b803590602001918460018302840111640100000000831117156100b757600080fd5b91908080601f016020809104026020016040519081016040528093929190818152602001838380828437600081840152601f19601f8201169050808301925050505050505091929192908035906020019064010000000081111561011a57600080fd5b82018360208201111561012c57600080fd5b8035906020019184600183028401116401000000008311171561014e57600080fd5b91908080601f016020809104026020016040519081016040528093929190818152602001838380828437600081840152601f19601f820116905080830192505050505050509192919290803590602001906401000000008111156101b157600080fd5b8201836020820111156101c357600080fd5b803590602001918460018302840111640100000000831117156101e557600080fd5b91908080601f016020809104026020016040519081016040528093929190818152602001838380828437600081840152601f19601f8201169050808301925050505050505091929192905050506104f5565b005b6102f26004803603602081101561024f57600080fd5b810190808035906020019064010000000081111561026c57600080fd5b82018360208201111561027e57600080fd5b803590602001918460018302840111640100000000831117156102a057600080fd5b91908080601f016020809104026020016040519081016040528093929190818152602001838380828437600081840152601f19601f8201169050808301925050505050505091929192905050506106b7565b604051808315151515815260200180602001828103825283818151815260200191508051906020019080838360005b8381101561033c578082015181840152602081019050610321565b50505050905090810190601f1680156103695780820380516001836020036101000a031916815260200191505b50935050505060405180910390f35b610380610856565b604051808315151515815260200180602001828103825283818151815260200191508051906020019080838360005b838110156103ca5780820151818401526020810190506103af565b50505050905090810190601f1680156103f75780820380516001836020036101000a031916815260200191505b50935050505060405180910390f35b61040e61090f565b604051808060200180602001838103835285818151815260200191508051906020019080838360005b83811015610452578082015181840152602081019050610437565b50505050905090810190601f16801561047f5780820380516001836020036101000a031916815260200191505b50838103825284818151815260200191508051906020019080838360005b838110156104b857808201518184015260208101905061049d565b50505050905090810190601f1680156104e55780820380516001836020036101000a031916815260200191505b5094505050505060405180910390f35b60006104ff610acd565b9050801561054c5761054760006040518060400160405280601381526020017f5573657220416c72656164792045786973747300000000000000000000000000815250610bcb565b6106b1565b6000826040516020018082805190602001908083835b602083106105855780518252602082019150602081019050602083039250610562565b6001836020036101000a0380198251168184511680821785525050505050509050019150506040516020818303038152906040528051906020012090506105ca610bff565b604051806060016040528087815260200186815260200183815250905080600260003373ffffffffffffffffffffffffffffffffffffffff1673ffffffffffffffffffffffffffffffffffffffff1681526020019081526020016000206000820151816000019080519060200190610643929190610c23565b506020820151816001019080519060200190610660929190610c23565b50604082015181600201559050506106ae60016040518060400160405280601781526020017f55736572204164646564205375636365737366756c6c79000000000000000000815250610bcb565b50505b50505050565b6000606060006106c5610acd565b90508015610813576000600260003373ffffffffffffffffffffffffffffffffffffffff1673ffffffffffffffffffffffffffffffffffffffff168152602001908152602001600020600201549050846040516020018082805190602001908083835b6020831061074b5780518252602082019150602081019050602083039250610728565b6001836020036101000a038019825116818451168082178552505050505050905001915050604051602081830303815290604052805190602001208114156107d05760016040518060400160405280600a81526020017f5573657220466f756e6400000000000000000000000000000000000000000000815250935093505050610851565b60006040518060400160405280600e81526020017f57726f6e672070617373776f7264000000000000000000000000000000000000815250935093505050610851565b60006040518060400160405280601881526020017f5573657220446f6573206e6f7420657869737420f09f98b1000000000000000081525092509250505b915091565b600060606000809054906101000a900460ff166001808054600181600116156101000203166002900480601f0160208091040260200160405190810160405280929190818152602001828054600181600116156101000203166002900480156109005780601f106108d557610100808354040283529160200191610900565b820191906000526020600020905b8154815290600101906020018083116108e357829003601f168201915b50505050509050915091509091565b60608061091a610bff565b600260003373ffffffffffffffffffffffffffffffffffffffff1673ffffffffffffffffffffffffffffffffffffffff168152602001908152602001600020604051806060016040529081600082018054600181600116156101000203166002900480601f0160208091040260200160405190810160405280929190818152602001828054600181600116156101000203166002900480156109fd5780601f106109d2576101008083540402835291602001916109fd565b820191906000526020600020905b8154815290600101906020018083116109e057829003601f168201915b50505050508152602001600182018054600181600116156101000203166002900480601f016020809104026020016040519081016040528092919081815260200182805460018160011615610100020316600290048015610a9f5780601f10610a7457610100808354040283529160200191610a9f565b820191906000526020600020905b815481529060010190602001808311610a8257829003601f168201915b5050505050815260200160028201548152505090508060000151816020015181915080905092509250509091565b60006060600260003373ffffffffffffffffffffffffffffffffffffffff1673ffffffffffffffffffffffffffffffffffffffff1681526020019081526020016000206000018054600181600116156101000203166002900480601f016020809104026020016040519081016040528092919081815260200182805460018160011615610100020316600290048015610ba75780601f10610b7c57610100808354040283529160200191610ba7565b820191906000526020600020905b815481529060010190602001808311610b8a57829003601f168201915b50505050509050600081511115610bc2576001915050610bc8565b60009150505b90565b816000806101000a81548160ff0219169083151502179055508060019080519060200190610bfa929190610ca3565b505050565b60405180606001604052806060815260200160608152602001600080191681525090565b828054600181600116156101000203166002900490600052602060002090601f016020900481019282601f10610c6457805160ff1916838001178555610c92565b82800160010185558215610c92579182015b82811115610c91578251825591602001919060010190610c76565b5b509050610c9f9190610d23565b5090565b828054600181600116156101000203166002900490600052602060002090601f016020900481019282601f10610ce457805160ff1916838001178555610d12565b82800160010185558215610d12579182015b82811115610d11578251825591602001919060010190610cf6565b5b509050610d1f9190610d23565b5090565b610d4591905b80821115610d41576000816000905550600101610d29565b5090565b9056fea265627a7a723158203ec4db0b6340530baa6e8d2a5a3b25999d10607c36954a296ef3dc01d151e95f64736f6c63430005100032",
  "source": "// SPDX-License-Identifier: MIT\npragma solidity >=0.4.21 <8.10.0;\n\n/**\n * The Users contract saves users information. With hashing.\n */\ncontract users {\n\n    bool private UserState;\n    string private Usermessage;\n\n    struct UserInfo {\n    string name;\n    string email;\n    bytes32 password;\n    }\n\n    mapping( address => UserInfo ) UserAddress;\n\n\n    function setnewUser(string memory name, string memory email, string memory password) public{\n        bool userExist = UserExists();\n        if(userExist){\n            setUserAddedorNot(false, \"User Already Exists\");\n        }\n        else{\n        bytes32 pass = keccak256(abi.encodePacked(password));\n        UserInfo memory newUser = UserInfo( name, email, pass);\n        UserAddress[msg.sender] = newUser;\n        setUserAddedorNot(true, \"User Added Successfully\");\n        }\n    }\n\n    function getTheUser() public view returns (string memory, string memory){\n        UserInfo memory theUser = UserAddress[msg.sender];\n        return (theUser.name, theUser.email);\n    }\n\n    function UserExists() internal view returns (bool) {\n        string memory theName= UserAddress[msg.sender].name;\n        if(bytes(theName).length > 0){\n            return true;\n        }\n        else return false;\n            \n    }\n\n    function setUserAddedorNot(bool Userstatus, string memory message) internal {\n        UserState = Userstatus;\n        Usermessage = message;\n    }\n\n    function UserAddedorNot() public view returns(bool,string memory){\n        return (UserState, Usermessage);\n    }\n    \n    function checkPassword(string memory receivedpass) public view returns(bool, string memory){\n        bool userExist = UserExists();\n        if(userExist){\n            bytes32 password = UserAddress[msg.sender].password;\n            if(password == keccak256(abi.encodePacked(receivedpass))){\n              return (true, \"User Found\");\n            }\n            else{\n                return (false, \"Wrong password\");\n            }\n        } else {\n            return (false, \"User Does not exist 😱\");\n        }\n    }\n        \n\n}\n",
  "sourcePath": "/home/rusian/Documents/blockdev/contracts/users.sol",
  "compiler": {
    "name": "solc",
    "version": "0.5.16+commit.9c3226ce.Emscripten.clang"
  },
  "schemaVersion": "3.4.7",
  "updatedAt": "2022-06-28T10:47:48.407Z",
  "networkType": "ethereum",
  "devdoc": {
    "methods": {}
  },
  "userdoc": {
    "methods": {},
    "notice": "The Users contract saves users information. With hashing."
  }
}