{
  "contractName": "users",
  "abi": [
    {
      "constant": false,
      "inputs": [
        {
          "internalType": "string",
          "name": "pass",
          "type": "string"
        }
      ],
      "name": "setPassword",
      "outputs": [],
      "payable": false,
      "stateMutability": "nonpayable",
      "type": "function"
    },
    {
      "constant": true,
      "inputs": [
        {
          "internalType": "string",
          "name": "receivedpass",
          "type": "string"
        }
      ],
      "name": "checkPassword",
      "outputs": [
        {
          "internalType": "bool",
          "name": "",
          "type": "bool"
        },
        {
          "internalType": "string",
          "name": "",
          "type": "string"
        }
      ],
      "payable": false,
      "stateMutability": "view",
      "type": "function"
    }
  ],
  "bytecode": "0x608060405234801561001057600080fd5b50610513806100206000396000f3fe608060405234801561001057600080fd5b50600436106100365760003560e01c8063290bb4531461003b57806387e16d4d146100f6575b600080fd5b6100f46004803603602081101561005157600080fd5b810190808035906020019064010000000081111561006e57600080fd5b82018360208201111561008057600080fd5b803590602001918460018302840111640100000000831117156100a257600080fd5b91908080601f016020809104026020016040519081016040528093929190818152602001838380828437600081840152601f19601f820116905080830192505050505050509192919290505050610235565b005b6101af6004803603602081101561010c57600080fd5b810190808035906020019064010000000081111561012957600080fd5b82018360208201111561013b57600080fd5b8035906020019184600183028401116401000000008311171561015d57600080fd5b91908080601f016020809104026020016040519081016040528093929190818152602001838380828437600081840152601f19601f8201169050808301925050505050505091929192905050506102ec565b604051808315151515815260200180602001828103825283818151815260200191508051906020019080838360005b838110156101f95780820151818401526020810190506101de565b50505050905090810190601f1680156102265780820380516001836020036101000a031916815260200191505b50935050505060405180910390f35b806040516020018082805190602001908083835b6020831061026c5780518252602082019150602081019050602083039250610249565b6001836020036101000a038019825116818451168082178552505050505050905001915050604051602081830303815290604052805190602001206000803373ffffffffffffffffffffffffffffffffffffffff1673ffffffffffffffffffffffffffffffffffffffff1681526020019081526020016000208190555050565b6000606060006102fa610480565b9050801561043d57836040516020018082805190602001908083835b602083106103395780518252602082019150602081019050602083039250610316565b6001836020036101000a038019825116818451168082178552505050505050905001915050604051602081830303815290604052805190602001206000803373ffffffffffffffffffffffffffffffffffffffff1673ffffffffffffffffffffffffffffffffffffffff1681526020019081526020016000205414156103fb5760016040518060400160405280600a81526020017f5573657220466f756e6400000000000000000000000000000000000000000000815250925092505061047b565b60006040518060400160405280601381526020017f50617373776f72642069732077726f6e67202100000000000000000000000000815250925092505061047b565b60006040518060400160405280601881526020017f5573657220446f6573206e6f7420657869737420f09f98b1000000000000000081525092509250505b915091565b6000806000803373ffffffffffffffffffffffffffffffffffffffff1673ffffffffffffffffffffffffffffffffffffffff16815260200190815260200160002050602060ff1611156104d657600190506104db565b600090505b9056fea265627a7a723158208a16021515525fdb5fb13c62eba3b6dda8c52aa6b58580b6ac1c654da28bf97264736f6c63430005100032",
  "source": "// SPDX-License-Identifier: MIT\npragma solidity >=0.4.21 <8.10.0;\n\n/**\n * The Users contract saves users information. With hashing.\n */\ncontract users {\n\n  mapping( address => bytes32 ) UserAddress;\n\n    function setPassword(string memory pass) public{\n        UserAddress[msg.sender] = keccak256(abi.encodePacked(pass));\n    }\n\n    function UserExists() internal view returns (bool){\n        if(UserAddress[msg.sender].length > 0){\n            return true;\n        }\n        else return false;\n            \n    }\n    \n    function checkPassword(string memory receivedpass) public view returns(bool, string memory){\n        bool userExist = UserExists();\n        if(userExist){\n            if(UserAddress[msg.sender] == keccak256(abi.encodePacked(receivedpass))){\n              return (true, \"User Found\");\n            }\n            else{\n                return(false, \"Password is wrong !\");\n            }\n        } else {\n            return(false, \"User Does not exist 😱\");\n        }\n    }\n\n}\n",
  "sourcePath": "/home/rusian/Documents/blockdev/contracts/users.sol",
  "compiler": {
    "name": "solc",
    "version": "0.5.16+commit.9c3226ce.Emscripten.clang"
  },
  "schemaVersion": "3.4.7",
  "updatedAt": "2022-06-26T08:52:41.829Z",
  "devdoc": {
    "methods": {}
  },
  "userdoc": {
    "methods": {},
    "notice": "The Users contract saves users information. With hashing."
  }
}