{
  "contractName": "users",
  "abi": [
    {
      "constant": false,
      "inputs": [
        {
          "internalType": "string",
          "name": "name",
          "type": "string"
        },
        {
          "internalType": "string",
          "name": "email",
          "type": "string"
        },
        {
          "internalType": "string",
          "name": "password",
          "type": "string"
        },
        {
          "internalType": "address",
          "name": "theUserAddress",
          "type": "address"
        }
      ],
      "name": "setnewUser",
      "outputs": [],
      "payable": false,
      "stateMutability": "nonpayable",
      "type": "function"
    },
    {
      "constant": true,
      "inputs": [
        {
          "internalType": "address",
          "name": "theUserAddress",
          "type": "address"
        }
      ],
      "name": "getTheUser",
      "outputs": [
        {
          "internalType": "string",
          "name": "",
          "type": "string"
        },
        {
          "internalType": "string",
          "name": "",
          "type": "string"
        }
      ],
      "payable": false,
      "stateMutability": "view",
      "type": "function"
    },
    {
      "constant": true,
      "inputs": [],
      "name": "UserAddedorNot",
      "outputs": [
        {
          "internalType": "bool",
          "name": "",
          "type": "bool"
        },
        {
          "internalType": "string",
          "name": "",
          "type": "string"
        }
      ],
      "payable": false,
      "stateMutability": "view",
      "type": "function"
    },
    {
      "constant": true,
      "inputs": [
        {
          "internalType": "string",
          "name": "receivedpass",
          "type": "string"
        },
        {
          "internalType": "address",
          "name": "theUserAddress",
          "type": "address"
        }
      ],
      "name": "checkPassword",
      "outputs": [
        {
          "internalType": "bool",
          "name": "",
          "type": "bool"
        },
        {
          "internalType": "string",
          "name": "",
          "type": "string"
        }
      ],
      "payable": false,
      "stateMutability": "view",
      "type": "function"
    },
    {
      "constant": false,
      "inputs": [
        {
          "internalType": "address",
          "name": "theUserAddress",
          "type": "address"
        },
        {
          "internalType": "string",
          "name": "theHash",
          "type": "string"
        },
        {
          "internalType": "string",
          "name": "thename",
          "type": "string"
        },
        {
          "internalType": "string",
          "name": "thetype",
          "type": "string"
        }
      ],
      "name": "HashStore",
      "outputs": [],
      "payable": false,
      "stateMutability": "nonpayable",
      "type": "function"
    },
    {
      "constant": true,
      "inputs": [
        {
          "internalType": "address",
          "name": "theUserAddress",
          "type": "address"
        }
      ],
      "name": "HashSetReturn",
      "outputs": [
        {
          "components": [
            {
              "internalType": "string",
              "name": "FileName",
              "type": "string"
            },
            {
              "internalType": "string",
              "name": "FileType",
              "type": "string"
            },
            {
              "internalType": "string",
              "name": "FileHash",
              "type": "string"
            }
          ],
          "internalType": "struct HashFile.HashStruct[]",
          "name": "",
          "type": "tuple[]"
        }
      ],
      "payable": false,
      "stateMutability": "view",
      "type": "function"
    }
  ],
  "bytecode": "0x608060405234801561001057600080fd5b50611c47806100206000396000f3fe608060405234801561001057600080fd5b50600436106100625760003560e01c806306f5028814610067578063140371b214610083578063192eea75146100b35780633cd605d9146100e4578063b7ea5cb714610115578063db937fc614610131575b600080fd5b610081600480360361007c9190810190610dff565b610150565b005b61009d60048036036100989190810190610dd6565b61022d565b6040516100aa919061119a565b60405180910390f35b6100cd60048036036100c89190810190610dd6565b610327565b6040516100db9291906111ec565b60405180910390f35b6100fe60048036036100f99190810190610eeb565b61053c565b60405161010c9291906111bc565b60405180910390f35b61012f600480360361012a9190810190610f3f565b610693565b005b61013961089d565b6040516101479291906111bc565b60405180910390f35b6000600260008673ffffffffffffffffffffffffffffffffffffffff1673ffffffffffffffffffffffffffffffffffffffff16815260200190815260200160002060030160009054906101000a900473ffffffffffffffffffffffffffffffffffffffff1690508073ffffffffffffffffffffffffffffffffffffffff16634ae697138585856040518463ffffffff1660e01b81526004016101f493929190611223565b600060405180830381600087803b15801561020e57600080fd5b505af1158015610222573d6000803e3d6000fd5b505050505050505050565b60606000600260008473ffffffffffffffffffffffffffffffffffffffff1673ffffffffffffffffffffffffffffffffffffffff16815260200190815260200160002060030160009054906101000a900473ffffffffffffffffffffffffffffffffffffffff16905060608173ffffffffffffffffffffffffffffffffffffffff16632e64cec16040518163ffffffff1660e01b815260040160006040518083038186803b1580156102de57600080fd5b505afa1580156102f2573d6000803e3d6000fd5b505050506040513d6000823e3d601f19601f8201168201806040525061031b9190810190610eaa565b90508092505050919050565b606080610332610a8a565b600260008573ffffffffffffffffffffffffffffffffffffffff1673ffffffffffffffffffffffffffffffffffffffff168152602001908152602001600020604051806080016040529081600082018054600181600116156101000203166002900480601f0160208091040260200160405190810160405280929190818152602001828054600181600116156101000203166002900480156104155780601f106103ea57610100808354040283529160200191610415565b820191906000526020600020905b8154815290600101906020018083116103f857829003601f168201915b50505050508152602001600182018054600181600116156101000203166002900480601f0160208091040260200160405190810160405280929190818152602001828054600181600116156101000203166002900480156104b75780601f1061048c576101008083540402835291602001916104b7565b820191906000526020600020905b81548152906001019060200180831161049a57829003601f168201915b50505050508152602001600282015481526020016003820160009054906101000a900473ffffffffffffffffffffffffffffffffffffffff1673ffffffffffffffffffffffffffffffffffffffff1673ffffffffffffffffffffffffffffffffffffffff16815250509050806000015181602001518191508090509250925050915091565b60006060600061054b84610956565b9050801561064e576000600260008673ffffffffffffffffffffffffffffffffffffffff1673ffffffffffffffffffffffffffffffffffffffff168152602001908152602001600020600201549050856040516020016105ab9190611183565b6040516020818303038152906040528051906020012081141561060b5760016040518060400160405280600a81526020017f5573657220466f756e640000000000000000000000000000000000000000000081525093509350505061068c565b60006040518060400160405280600e81526020017f57726f6e672070617373776f726400000000000000000000000000000000000081525093509350505061068c565b60006040518060400160405280601881526020017f5573657220446f6573206e6f7420657869737420f09f98b1000000000000000081525092509250505b9250929050565b600061069e82610956565b905080156106eb576106e660006040518060400160405280601381526020017f5573657220416c72656164792045786973747300000000000000000000000000815250610a56565b610896565b6000836040516020016106fe9190611183565b604051602081830303815290604052805190602001209050600060405161072490610acb565b604051809103906000f080158015610740573d6000803e3d6000fd5b50905061074b610a8a565b60405180608001604052808981526020018881526020018481526020018373ffffffffffffffffffffffffffffffffffffffff16815250905080600260008773ffffffffffffffffffffffffffffffffffffffff1673ffffffffffffffffffffffffffffffffffffffff16815260200190815260200160002060008201518160000190805190602001906107e0929190610ad8565b5060208201518160010190805190602001906107fd929190610ad8565b506040820151816002015560608201518160030160006101000a81548173ffffffffffffffffffffffffffffffffffffffff021916908373ffffffffffffffffffffffffffffffffffffffff16021790555090505061089260016040518060400160405280601781526020017f55736572204164646564205375636365737366756c6c79000000000000000000815250610a56565b5050505b5050505050565b600060606000809054906101000a900460ff166001808054600181600116156101000203166002900480601f0160208091040260200160405190810160405280929190818152602001828054600181600116156101000203166002900480156109475780601f1061091c57610100808354040283529160200191610947565b820191906000526020600020905b81548152906001019060200180831161092a57829003601f168201915b50505050509050915091509091565b60006060600260008473ffffffffffffffffffffffffffffffffffffffff1673ffffffffffffffffffffffffffffffffffffffff1681526020019081526020016000206000018054600181600116156101000203166002900480601f016020809104026020016040519081016040528092919081815260200182805460018160011615610100020316600290048015610a305780601f10610a0557610100808354040283529160200191610a30565b820191906000526020600020905b815481529060010190602001808311610a1357829003601f168201915b50505050509050600081511115610a4b576001915050610a51565b60009150505b919050565b816000806101000a81548160ff0219169083151502179055508060019080519060200190610a85929190610b58565b505050565b6040518060800160405280606081526020016060815260200160008019168152602001600073ffffffffffffffffffffffffffffffffffffffff1681525090565b6107c48061144183390190565b828054600181600116156101000203166002900490600052602060002090601f016020900481019282601f10610b1957805160ff1916838001178555610b47565b82800160010185558215610b47579182015b82811115610b46578251825591602001919060010190610b2b565b5b509050610b549190610bd8565b5090565b828054600181600116156101000203166002900490600052602060002090601f016020900481019282601f10610b9957805160ff1916838001178555610bc7565b82800160010185558215610bc7579182015b82811115610bc6578251825591602001919060010190610bab565b5b509050610bd49190610bd8565b5090565b610bfa91905b80821115610bf6576000816000905550600101610bde565b5090565b90565b600081359050610c0c81611429565b92915050565b600082601f830112610c2357600080fd5b8151610c36610c318261129c565b61126f565b9150818183526020840193506020810190508360005b83811015610c7c5781518601610c628882610d2e565b845260208401935060208301925050600181019050610c4c565b5050505092915050565b600082601f830112610c9757600080fd5b8151610caa610ca5826112c4565b61126f565b91508082526020830160208301858383011115610cc657600080fd5b610cd18382846113e5565b50505092915050565b600082601f830112610ceb57600080fd5b8135610cfe610cf9826112f0565b61126f565b91508082526020830160208301858383011115610d1a57600080fd5b610d258382846113d6565b50505092915050565b600060608284031215610d4057600080fd5b610d4a606061126f565b9050600082015167ffffffffffffffff811115610d6657600080fd5b610d7284828501610c86565b600083015250602082015167ffffffffffffffff811115610d9257600080fd5b610d9e84828501610c86565b602083015250604082015167ffffffffffffffff811115610dbe57600080fd5b610dca84828501610c86565b60408301525092915050565b600060208284031215610de857600080fd5b6000610df684828501610bfd565b91505092915050565b60008060008060808587031215610e1557600080fd5b6000610e2387828801610bfd565b945050602085013567ffffffffffffffff811115610e4057600080fd5b610e4c87828801610cda565b935050604085013567ffffffffffffffff811115610e6957600080fd5b610e7587828801610cda565b925050606085013567ffffffffffffffff811115610e9257600080fd5b610e9e87828801610cda565b91505092959194509250565b600060208284031215610ebc57600080fd5b600082015167ffffffffffffffff811115610ed657600080fd5b610ee284828501610c12565b91505092915050565b60008060408385031215610efe57600080fd5b600083013567ffffffffffffffff811115610f1857600080fd5b610f2485828601610cda565b9250506020610f3585828601610bfd565b9150509250929050565b60008060008060808587031215610f5557600080fd5b600085013567ffffffffffffffff811115610f6f57600080fd5b610f7b87828801610cda565b945050602085013567ffffffffffffffff811115610f9857600080fd5b610fa487828801610cda565b935050604085013567ffffffffffffffff811115610fc157600080fd5b610fcd87828801610cda565b9250506060610fde87828801610bfd565b91505092959194509250565b6000610ff68383611125565b905092915050565b60006110098261132c565b611013818561135a565b9350836020820285016110258561131c565b8060005b8581101561106157848403895281516110428582610fea565b945061104d8361134d565b925060208a01995050600181019050611029565b50829750879550505050505092915050565b61107c816113aa565b82525050565b600061108d82611342565b611097818561137c565b93506110a78185602086016113e5565b6110b081611418565b840191505092915050565b60006110c682611342565b6110d0818561138d565b93506110e08185602086016113e5565b80840191505092915050565b60006110f782611337565b611101818561136b565b93506111118185602086016113e5565b61111a81611418565b840191505092915050565b6000606083016000830151848203600086015261114282826110ec565b9150506020830151848203602086015261115c82826110ec565b9150506040830151848203604086015261117682826110ec565b9150508091505092915050565b600061118f82846110bb565b915081905092915050565b600060208201905081810360008301526111b48184610ffe565b905092915050565b60006040820190506111d16000830185611073565b81810360208301526111e38184611082565b90509392505050565b600060408201905081810360008301526112068185611082565b9050818103602083015261121a8184611082565b90509392505050565b6000606082019050818103600083015261123d8186611082565b905081810360208301526112518185611082565b905081810360408301526112658184611082565b9050949350505050565b6000604051905081810181811067ffffffffffffffff8211171561129257600080fd5b8060405250919050565b600067ffffffffffffffff8211156112b357600080fd5b602082029050602081019050919050565b600067ffffffffffffffff8211156112db57600080fd5b601f19601f8301169050602081019050919050565b600067ffffffffffffffff82111561130757600080fd5b601f19601f8301169050602081019050919050565b6000819050602082019050919050565b600081519050919050565b600081519050919050565b600081519050919050565b6000602082019050919050565b600082825260208201905092915050565b600082825260208201905092915050565b600082825260208201905092915050565b600081905092915050565b60006113a3826113b6565b9050919050565b60008115159050919050565b600073ffffffffffffffffffffffffffffffffffffffff82169050919050565b82818337600083830152505050565b60005b838110156114035780820151818401526020810190506113e8565b83811115611412576000848401525b50505050565b6000601f19601f8301169050919050565b61143281611398565b811461143d57600080fd5b5056fe608060405234801561001057600080fd5b506107a4806100206000396000f3fe608060405234801561001057600080fd5b50600436106100365760003560e01c80632e64cec11461003b5780634ae6971314610059575b600080fd5b610043610075565b604051610050919061063e565b60405180910390f35b610073600480360361006e9190810190610487565b6102ba565b005b60606000805480602002602001604051908101604052809291908181526020016000905b828210156102b15783829060005260206000209060030201604051806060016040529081600082018054600181600116156101000203166002900480601f0160208091040260200160405190810160405280929190818152602001828054600181600116156101000203166002900480156101555780601f1061012a57610100808354040283529160200191610155565b820191906000526020600020905b81548152906001019060200180831161013857829003601f168201915b50505050508152602001600182018054600181600116156101000203166002900480601f0160208091040260200160405190810160405280929190818152602001828054600181600116156101000203166002900480156101f75780601f106101cc576101008083540402835291602001916101f7565b820191906000526020600020905b8154815290600101906020018083116101da57829003601f168201915b50505050508152602001600282018054600181600116156101000203166002900480601f0160208091040260200160405190810160405280929190818152602001828054600181600116156101000203166002900480156102995780601f1061026e57610100808354040283529160200191610299565b820191906000526020600020905b81548152906001019060200180831161027c57829003601f168201915b50505050508152505081526020019060010190610099565b50505050905090565b6102c261036d565b604051806060016040528084815260200183815260200185815250905060008190806001815401808255809150509060018203906000526020600020906003020160009091929091909150600082015181600001908051906020019061032992919061038e565b50602082015181600101908051906020019061034692919061038e565b50604082015181600201908051906020019061036392919061038e565b5050505050505050565b60405180606001604052806060815260200160608152602001606081525090565b828054600181600116156101000203166002900490600052602060002090601f016020900481019282601f106103cf57805160ff19168380011785556103fd565b828001600101855582156103fd579182015b828111156103fc5782518255916020019190600101906103e1565b5b50905061040a919061040e565b5090565b61043091905b8082111561042c576000816000905550600101610414565b5090565b90565b600082601f83011261044457600080fd5b81356104576104528261068d565b610660565b9150808252602083016020830185838301111561047357600080fd5b61047e83828461070e565b50505092915050565b60008060006060848603121561049c57600080fd5b600084013567ffffffffffffffff8111156104b657600080fd5b6104c286828701610433565b935050602084013567ffffffffffffffff8111156104df57600080fd5b6104eb86828701610433565b925050604084013567ffffffffffffffff81111561050857600080fd5b61051486828701610433565b9150509250925092565b600061052a83836105e0565b905092915050565b600061053d826106c9565b61054781856106ec565b935083602082028501610559856106b9565b8060005b858110156105955784840389528151610576858261051e565b9450610581836106df565b925060208a0199505060018101905061055d565b50829750879550505050505092915050565b60006105b2826106d4565b6105bc81856106fd565b93506105cc81856020860161071d565b6105d581610750565b840191505092915050565b600060608301600083015184820360008601526105fd82826105a7565b9150506020830151848203602086015261061782826105a7565b9150506040830151848203604086015261063182826105a7565b9150508091505092915050565b600060208201905081810360008301526106588184610532565b905092915050565b6000604051905081810181811067ffffffffffffffff8211171561068357600080fd5b8060405250919050565b600067ffffffffffffffff8211156106a457600080fd5b601f19601f8301169050602081019050919050565b6000819050602082019050919050565b600081519050919050565b600081519050919050565b6000602082019050919050565b600082825260208201905092915050565b600082825260208201905092915050565b82818337600083830152505050565b60005b8381101561073b578082015181840152602081019050610720565b8381111561074a576000848401525b50505050565b6000601f19601f830116905091905056fea365627a7a72315820a07d241dd7a086cf8dea364632459b6618bea8c9605c92f80986e9b49e3667db6c6578706572696d656e74616cf564736f6c63430005100040a365627a7a7231582078e3bcb0dbdc28d32e7fa9f2c06245e6053c5b4866dcd69a6bf6bd5d4e685d336c6578706572696d656e74616cf564736f6c63430005100040",
  "source": "// SPDX-License-Identifier: MIT\npragma solidity >=0.4.21 <8.10.0;\npragma experimental ABIEncoderV2;\nimport \"./HashFile.sol\";\n\n/**\n * The Users contract saves users information. With hashing.\n */\ncontract users {\n\n    bool private UserState;\n    string private Usermessage;\n\n    struct UserInfo {\n    string name;\n    string email;\n    bytes32 password;\n    HashFile hf;\n    }\n\n    mapping( address => UserInfo ) UserAddress;\n\n\n    function setnewUser(string memory name, string memory email, string memory password, address theUserAddress) public{\n        bool userExist = UserExists(theUserAddress);\n        if(userExist){\n            setUserAddedorNot(false, \"User Already Exists\");\n        }\n        else{\n        bytes32 pass = keccak256(abi.encodePacked(password));\n        HashFile _hf = new HashFile();\n        UserInfo memory newUser = UserInfo( name, email, pass, _hf);\n        UserAddress[theUserAddress] = newUser;\n        setUserAddedorNot(true, \"User Added Successfully\");\n        }\n    }\n\n    function getTheUser(address theUserAddress) public view returns (string memory, string memory){\n        UserInfo memory theUser = UserAddress[theUserAddress];\n        return (theUser.name, theUser.email);\n    }\n\n    function UserExists(address theUserAddress) internal view returns (bool) {\n        string memory theName= UserAddress[theUserAddress].name;\n        if(bytes(theName).length > 0){\n            return true;\n        }\n        else return false;\n            \n    }\n\n    function setUserAddedorNot(bool Userstatus, string memory message) internal {\n        UserState = Userstatus;\n        Usermessage = message;\n    }\n\n    function UserAddedorNot() public view returns(bool,string memory){\n        return (UserState, Usermessage);\n    }\n    \n    function checkPassword(string memory receivedpass, address theUserAddress) public view returns(bool, string memory){\n        bool userExist = UserExists(theUserAddress);\n        if(userExist){\n            bytes32 password = UserAddress[theUserAddress].password;\n            if(password == keccak256(abi.encodePacked(receivedpass))){\n              return (true, \"User Found\");\n            }\n            else{\n                return (false, \"Wrong password\");\n            }\n        } else {\n            return (false, \"User Does not exist \");\n        }\n    }\n\n    function HashStore(address theUserAddress, string memory theHash, string memory thename, string memory thetype ) public {\n        HashFile hashObj = UserAddress[theUserAddress].hf;\n        hashObj.store(theHash, thename, thetype);\n    }\n\n    function HashSetReturn(address theUserAddress) public view returns(HashFile.HashStruct[] memory) {\n        HashFile hashObj = UserAddress[theUserAddress].hf;\n        HashFile.HashStruct[] memory obj = hashObj.retrieve();\n        return obj;\n    }\n\n}\n",
  "sourcePath": "/home/rusian/Documents/new Block/BLockChain-App/contracts/users.sol",
  "compiler": {
    "name": "solc",
    "version": "0.5.16+commit.9c3226ce.Emscripten.clang"
  },
  "schemaVersion": "3.4.8",
  "updatedAt": "2022-08-06T18:32:58.633Z",
  "networkType": "ethereum",
  "devdoc": {
    "methods": {}
  },
  "userdoc": {
    "methods": {},
    "notice": "The Users contract saves users information. With hashing."
  }
}