{
  "contractName": "users",
  "abi": [
    {
      "constant": false,
      "inputs": [
        {
          "internalType": "string",
          "name": "name",
          "type": "string"
        },
        {
          "internalType": "string",
          "name": "email",
          "type": "string"
        },
        {
          "internalType": "string",
          "name": "password",
          "type": "string"
        },
        {
          "internalType": "address",
          "name": "theUserAddress",
          "type": "address"
        }
      ],
      "name": "setnewUser",
      "outputs": [],
      "payable": false,
      "stateMutability": "nonpayable",
      "type": "function"
    },
    {
      "constant": true,
      "inputs": [
        {
          "internalType": "address",
          "name": "theUserAddress",
          "type": "address"
        }
      ],
      "name": "getTheUser",
      "outputs": [
        {
          "internalType": "string",
          "name": "",
          "type": "string"
        },
        {
          "internalType": "string",
          "name": "",
          "type": "string"
        }
      ],
      "payable": false,
      "stateMutability": "view",
      "type": "function"
    },
    {
      "constant": true,
      "inputs": [],
      "name": "UserAddedorNot",
      "outputs": [
        {
          "internalType": "bool",
          "name": "",
          "type": "bool"
        },
        {
          "internalType": "string",
          "name": "",
          "type": "string"
        }
      ],
      "payable": false,
      "stateMutability": "view",
      "type": "function"
    },
    {
      "constant": true,
      "inputs": [
        {
          "internalType": "string",
          "name": "receivedpass",
          "type": "string"
        },
        {
          "internalType": "address",
          "name": "theUserAddress",
          "type": "address"
        }
      ],
      "name": "checkPassword",
      "outputs": [
        {
          "internalType": "bool",
          "name": "",
          "type": "bool"
        },
        {
          "internalType": "string",
          "name": "",
          "type": "string"
        }
      ],
      "payable": false,
      "stateMutability": "view",
      "type": "function"
    },
    {
      "constant": false,
      "inputs": [
        {
          "internalType": "address",
          "name": "theUserAddress",
          "type": "address"
        },
        {
          "internalType": "string",
          "name": "theHash",
          "type": "string"
        },
        {
          "internalType": "string",
          "name": "thename",
          "type": "string"
        },
        {
          "internalType": "string",
          "name": "thetype",
          "type": "string"
        }
      ],
      "name": "HashStore",
      "outputs": [],
      "payable": false,
      "stateMutability": "nonpayable",
      "type": "function"
    },
    {
      "constant": true,
      "inputs": [
        {
          "internalType": "address",
          "name": "theUserAddress",
          "type": "address"
        }
      ],
      "name": "HashSetReturn",
      "outputs": [
        {
          "components": [
            {
              "internalType": "string",
              "name": "FileName",
              "type": "string"
            },
            {
              "internalType": "string",
              "name": "FileType",
              "type": "string"
            },
            {
              "internalType": "string",
              "name": "FileHash",
              "type": "string"
            }
          ],
          "internalType": "struct HashFile.HashStruct[]",
          "name": "",
          "type": "tuple[]"
        }
      ],
      "payable": false,
      "stateMutability": "view",
      "type": "function"
    }
  ],
  "bytecode": "0x608060405234801561001057600080fd5b50611c41806100206000396000f3fe608060405234801561001057600080fd5b50600436106100625760003560e01c806306f5028814610067578063140371b214610083578063192eea75146100b35780633cd605d9146100e4578063b7ea5cb714610115578063db937fc614610131575b600080fd5b610081600480360361007c9190810190610df9565b610150565b005b61009d60048036036100989190810190610dd0565b61022d565b6040516100aa9190611194565b60405180910390f35b6100cd60048036036100c89190810190610dd0565b610321565b6040516100db9291906111e6565b60405180910390f35b6100fe60048036036100f99190810190610ee5565b610536565b60405161010c9291906111b6565b60405180910390f35b61012f600480360361012a9190810190610f39565b61068d565b005b610139610897565b6040516101479291906111b6565b60405180910390f35b6000600260008673ffffffffffffffffffffffffffffffffffffffff1673ffffffffffffffffffffffffffffffffffffffff16815260200190815260200160002060030160009054906101000a900473ffffffffffffffffffffffffffffffffffffffff1690508073ffffffffffffffffffffffffffffffffffffffff16634ae697138585856040518463ffffffff1660e01b81526004016101f49392919061121d565b600060405180830381600087803b15801561020e57600080fd5b505af1158015610222573d6000803e3d6000fd5b505050505050505050565b60606000600260008473ffffffffffffffffffffffffffffffffffffffff1673ffffffffffffffffffffffffffffffffffffffff16815260200190815260200160002060030160009054906101000a900473ffffffffffffffffffffffffffffffffffffffff1690508073ffffffffffffffffffffffffffffffffffffffff16632e64cec16040518163ffffffff1660e01b815260040160006040518083038186803b1580156102dc57600080fd5b505afa1580156102f0573d6000803e3d6000fd5b505050506040513d6000823e3d601f19601f820116820180604052506103199190810190610ea4565b915050919050565b60608061032c610a84565b600260008573ffffffffffffffffffffffffffffffffffffffff1673ffffffffffffffffffffffffffffffffffffffff168152602001908152602001600020604051806080016040529081600082018054600181600116156101000203166002900480601f01602080910402602001604051908101604052809291908181526020018280546001816001161561010002031660029004801561040f5780601f106103e45761010080835404028352916020019161040f565b820191906000526020600020905b8154815290600101906020018083116103f257829003601f168201915b50505050508152602001600182018054600181600116156101000203166002900480601f0160208091040260200160405190810160405280929190818152602001828054600181600116156101000203166002900480156104b15780601f10610486576101008083540402835291602001916104b1565b820191906000526020600020905b81548152906001019060200180831161049457829003601f168201915b50505050508152602001600282015481526020016003820160009054906101000a900473ffffffffffffffffffffffffffffffffffffffff1673ffffffffffffffffffffffffffffffffffffffff1673ffffffffffffffffffffffffffffffffffffffff16815250509050806000015181602001518191508090509250925050915091565b60006060600061054584610950565b90508015610648576000600260008673ffffffffffffffffffffffffffffffffffffffff1673ffffffffffffffffffffffffffffffffffffffff168152602001908152602001600020600201549050856040516020016105a5919061117d565b604051602081830303815290604052805190602001208114156106055760016040518060400160405280600a81526020017f5573657220466f756e6400000000000000000000000000000000000000000000815250935093505050610686565b60006040518060400160405280600e81526020017f57726f6e672070617373776f7264000000000000000000000000000000000000815250935093505050610686565b60006040518060400160405280601881526020017f5573657220446f6573206e6f7420657869737420f09f98b1000000000000000081525092509250505b9250929050565b600061069882610950565b905080156106e5576106e060006040518060400160405280601381526020017f5573657220416c72656164792045786973747300000000000000000000000000815250610a50565b610890565b6000836040516020016106f8919061117d565b604051602081830303815290604052805190602001209050600060405161071e90610ac5565b604051809103906000f08015801561073a573d6000803e3d6000fd5b509050610745610a84565b60405180608001604052808981526020018881526020018481526020018373ffffffffffffffffffffffffffffffffffffffff16815250905080600260008773ffffffffffffffffffffffffffffffffffffffff1673ffffffffffffffffffffffffffffffffffffffff16815260200190815260200160002060008201518160000190805190602001906107da929190610ad2565b5060208201518160010190805190602001906107f7929190610ad2565b506040820151816002015560608201518160030160006101000a81548173ffffffffffffffffffffffffffffffffffffffff021916908373ffffffffffffffffffffffffffffffffffffffff16021790555090505061088c60016040518060400160405280601781526020017f55736572204164646564205375636365737366756c6c79000000000000000000815250610a50565b5050505b5050505050565b600060606000809054906101000a900460ff166001808054600181600116156101000203166002900480601f0160208091040260200160405190810160405280929190818152602001828054600181600116156101000203166002900480156109415780601f1061091657610100808354040283529160200191610941565b820191906000526020600020905b81548152906001019060200180831161092457829003601f168201915b50505050509050915091509091565b60006060600260008473ffffffffffffffffffffffffffffffffffffffff1673ffffffffffffffffffffffffffffffffffffffff1681526020019081526020016000206000018054600181600116156101000203166002900480601f016020809104026020016040519081016040528092919081815260200182805460018160011615610100020316600290048015610a2a5780601f106109ff57610100808354040283529160200191610a2a565b820191906000526020600020905b815481529060010190602001808311610a0d57829003601f168201915b50505050509050600081511115610a45576001915050610a4b565b60009150505b919050565b816000806101000a81548160ff0219169083151502179055508060019080519060200190610a7f929190610b52565b505050565b6040518060800160405280606081526020016060815260200160008019168152602001600073ffffffffffffffffffffffffffffffffffffffff1681525090565b6107c48061143b83390190565b828054600181600116156101000203166002900490600052602060002090601f016020900481019282601f10610b1357805160ff1916838001178555610b41565b82800160010185558215610b41579182015b82811115610b40578251825591602001919060010190610b25565b5b509050610b4e9190610bd2565b5090565b828054600181600116156101000203166002900490600052602060002090601f016020900481019282601f10610b9357805160ff1916838001178555610bc1565b82800160010185558215610bc1579182015b82811115610bc0578251825591602001919060010190610ba5565b5b509050610bce9190610bd2565b5090565b610bf491905b80821115610bf0576000816000905550600101610bd8565b5090565b90565b600081359050610c0681611423565b92915050565b600082601f830112610c1d57600080fd5b8151610c30610c2b82611296565b611269565b9150818183526020840193506020810190508360005b83811015610c765781518601610c5c8882610d28565b845260208401935060208301925050600181019050610c46565b5050505092915050565b600082601f830112610c9157600080fd5b8151610ca4610c9f826112be565b611269565b91508082526020830160208301858383011115610cc057600080fd5b610ccb8382846113df565b50505092915050565b600082601f830112610ce557600080fd5b8135610cf8610cf3826112ea565b611269565b91508082526020830160208301858383011115610d1457600080fd5b610d1f8382846113d0565b50505092915050565b600060608284031215610d3a57600080fd5b610d446060611269565b9050600082015167ffffffffffffffff811115610d6057600080fd5b610d6c84828501610c80565b600083015250602082015167ffffffffffffffff811115610d8c57600080fd5b610d9884828501610c80565b602083015250604082015167ffffffffffffffff811115610db857600080fd5b610dc484828501610c80565b60408301525092915050565b600060208284031215610de257600080fd5b6000610df084828501610bf7565b91505092915050565b60008060008060808587031215610e0f57600080fd5b6000610e1d87828801610bf7565b945050602085013567ffffffffffffffff811115610e3a57600080fd5b610e4687828801610cd4565b935050604085013567ffffffffffffffff811115610e6357600080fd5b610e6f87828801610cd4565b925050606085013567ffffffffffffffff811115610e8c57600080fd5b610e9887828801610cd4565b91505092959194509250565b600060208284031215610eb657600080fd5b600082015167ffffffffffffffff811115610ed057600080fd5b610edc84828501610c0c565b91505092915050565b60008060408385031215610ef857600080fd5b600083013567ffffffffffffffff811115610f1257600080fd5b610f1e85828601610cd4565b9250506020610f2f85828601610bf7565b9150509250929050565b60008060008060808587031215610f4f57600080fd5b600085013567ffffffffffffffff811115610f6957600080fd5b610f7587828801610cd4565b945050602085013567ffffffffffffffff811115610f9257600080fd5b610f9e87828801610cd4565b935050604085013567ffffffffffffffff811115610fbb57600080fd5b610fc787828801610cd4565b9250506060610fd887828801610bf7565b91505092959194509250565b6000610ff0838361111f565b905092915050565b600061100382611326565b61100d8185611354565b93508360208202850161101f85611316565b8060005b8581101561105b578484038952815161103c8582610fe4565b945061104783611347565b925060208a01995050600181019050611023565b50829750879550505050505092915050565b611076816113a4565b82525050565b60006110878261133c565b6110918185611376565b93506110a18185602086016113df565b6110aa81611412565b840191505092915050565b60006110c08261133c565b6110ca8185611387565b93506110da8185602086016113df565b80840191505092915050565b60006110f182611331565b6110fb8185611365565b935061110b8185602086016113df565b61111481611412565b840191505092915050565b6000606083016000830151848203600086015261113c82826110e6565b9150506020830151848203602086015261115682826110e6565b9150506040830151848203604086015261117082826110e6565b9150508091505092915050565b600061118982846110b5565b915081905092915050565b600060208201905081810360008301526111ae8184610ff8565b905092915050565b60006040820190506111cb600083018561106d565b81810360208301526111dd818461107c565b90509392505050565b60006040820190508181036000830152611200818561107c565b90508181036020830152611214818461107c565b90509392505050565b60006060820190508181036000830152611237818661107c565b9050818103602083015261124b818561107c565b9050818103604083015261125f818461107c565b9050949350505050565b6000604051905081810181811067ffffffffffffffff8211171561128c57600080fd5b8060405250919050565b600067ffffffffffffffff8211156112ad57600080fd5b602082029050602081019050919050565b600067ffffffffffffffff8211156112d557600080fd5b601f19601f8301169050602081019050919050565b600067ffffffffffffffff82111561130157600080fd5b601f19601f8301169050602081019050919050565b6000819050602082019050919050565b600081519050919050565b600081519050919050565b600081519050919050565b6000602082019050919050565b600082825260208201905092915050565b600082825260208201905092915050565b600082825260208201905092915050565b600081905092915050565b600061139d826113b0565b9050919050565b60008115159050919050565b600073ffffffffffffffffffffffffffffffffffffffff82169050919050565b82818337600083830152505050565b60005b838110156113fd5780820151818401526020810190506113e2565b8381111561140c576000848401525b50505050565b6000601f19601f8301169050919050565b61142c81611392565b811461143757600080fd5b5056fe608060405234801561001057600080fd5b506107a4806100206000396000f3fe608060405234801561001057600080fd5b50600436106100365760003560e01c80632e64cec11461003b5780634ae6971314610059575b600080fd5b610043610075565b604051610050919061063e565b60405180910390f35b610073600480360361006e9190810190610487565b6102ba565b005b60606000805480602002602001604051908101604052809291908181526020016000905b828210156102b15783829060005260206000209060030201604051806060016040529081600082018054600181600116156101000203166002900480601f0160208091040260200160405190810160405280929190818152602001828054600181600116156101000203166002900480156101555780601f1061012a57610100808354040283529160200191610155565b820191906000526020600020905b81548152906001019060200180831161013857829003601f168201915b50505050508152602001600182018054600181600116156101000203166002900480601f0160208091040260200160405190810160405280929190818152602001828054600181600116156101000203166002900480156101f75780601f106101cc576101008083540402835291602001916101f7565b820191906000526020600020905b8154815290600101906020018083116101da57829003601f168201915b50505050508152602001600282018054600181600116156101000203166002900480601f0160208091040260200160405190810160405280929190818152602001828054600181600116156101000203166002900480156102995780601f1061026e57610100808354040283529160200191610299565b820191906000526020600020905b81548152906001019060200180831161027c57829003601f168201915b50505050508152505081526020019060010190610099565b50505050905090565b6102c261036d565b604051806060016040528084815260200183815260200185815250905060008190806001815401808255809150509060018203906000526020600020906003020160009091929091909150600082015181600001908051906020019061032992919061038e565b50602082015181600101908051906020019061034692919061038e565b50604082015181600201908051906020019061036392919061038e565b5050505050505050565b60405180606001604052806060815260200160608152602001606081525090565b828054600181600116156101000203166002900490600052602060002090601f016020900481019282601f106103cf57805160ff19168380011785556103fd565b828001600101855582156103fd579182015b828111156103fc5782518255916020019190600101906103e1565b5b50905061040a919061040e565b5090565b61043091905b8082111561042c576000816000905550600101610414565b5090565b90565b600082601f83011261044457600080fd5b81356104576104528261068d565b610660565b9150808252602083016020830185838301111561047357600080fd5b61047e83828461070e565b50505092915050565b60008060006060848603121561049c57600080fd5b600084013567ffffffffffffffff8111156104b657600080fd5b6104c286828701610433565b935050602084013567ffffffffffffffff8111156104df57600080fd5b6104eb86828701610433565b925050604084013567ffffffffffffffff81111561050857600080fd5b61051486828701610433565b9150509250925092565b600061052a83836105e0565b905092915050565b600061053d826106c9565b61054781856106ec565b935083602082028501610559856106b9565b8060005b858110156105955784840389528151610576858261051e565b9450610581836106df565b925060208a0199505060018101905061055d565b50829750879550505050505092915050565b60006105b2826106d4565b6105bc81856106fd565b93506105cc81856020860161071d565b6105d581610750565b840191505092915050565b600060608301600083015184820360008601526105fd82826105a7565b9150506020830151848203602086015261061782826105a7565b9150506040830151848203604086015261063182826105a7565b9150508091505092915050565b600060208201905081810360008301526106588184610532565b905092915050565b6000604051905081810181811067ffffffffffffffff8211171561068357600080fd5b8060405250919050565b600067ffffffffffffffff8211156106a457600080fd5b601f19601f8301169050602081019050919050565b6000819050602082019050919050565b600081519050919050565b600081519050919050565b6000602082019050919050565b600082825260208201905092915050565b600082825260208201905092915050565b82818337600083830152505050565b60005b8381101561073b578082015181840152602081019050610720565b8381111561074a576000848401525b50505050565b6000601f19601f830116905091905056fea365627a7a72315820a07d241dd7a086cf8dea364632459b6618bea8c9605c92f80986e9b49e3667db6c6578706572696d656e74616cf564736f6c63430005100040a365627a7a723158206c8cfc02fdf3ddb89040331aa2dd0ccf086a0e7084c8c86ae75602fd0566525a6c6578706572696d656e74616cf564736f6c63430005100040",
  "source": "// SPDX-License-Identifier: MIT\npragma solidity >=0.4.21 <8.10.0;\npragma experimental ABIEncoderV2;\nimport \"./HashFile.sol\";\n\n/**\n * The Users contract saves users information. With hashing.\n */\ncontract users {\n\n    bool private UserState;\n    string private Usermessage;\n\n    struct UserInfo {\n    string name;\n    string email;\n    bytes32 password;\n    HashFile hf;\n    }\n\n    mapping( address => UserInfo ) UserAddress;\n\n\n    function setnewUser(string memory name, string memory email, string memory password, address theUserAddress) public{\n        bool userExist = UserExists(theUserAddress);\n        if(userExist){\n            setUserAddedorNot(false, \"User Already Exists\");\n        }\n        else{\n        bytes32 pass = keccak256(abi.encodePacked(password));\n        HashFile _hf = new HashFile();\n        UserInfo memory newUser = UserInfo( name, email, pass, _hf);\n        UserAddress[theUserAddress] = newUser;\n        setUserAddedorNot(true, \"User Added Successfully\");\n        }\n    }\n\n    function getTheUser(address theUserAddress) public view returns (string memory, string memory){\n        UserInfo memory theUser = UserAddress[theUserAddress];\n        return (theUser.name, theUser.email);\n    }\n\n    function UserExists(address theUserAddress) internal view returns (bool) {\n        string memory theName= UserAddress[theUserAddress].name;\n        if(bytes(theName).length > 0){\n            return true;\n        }\n        else return false;\n            \n    }\n\n    function setUserAddedorNot(bool Userstatus, string memory message) internal {\n        UserState = Userstatus;\n        Usermessage = message;\n    }\n\n    function UserAddedorNot() public view returns(bool,string memory){\n        return (UserState, Usermessage);\n    }\n    \n    function checkPassword(string memory receivedpass, address theUserAddress) public view returns(bool, string memory){\n        bool userExist = UserExists(theUserAddress);\n        if(userExist){\n            bytes32 password = UserAddress[theUserAddress].password;\n            if(password == keccak256(abi.encodePacked(receivedpass))){\n              return (true, \"User Found\");\n            }\n            else{\n                return (false, \"Wrong password\");\n            }\n        } else {\n            return (false, \"User Does not exist \");\n        }\n    }\n\n    function HashStore(address theUserAddress, string memory theHash, string memory thename, string memory thetype ) public {\n        HashFile hashObj = UserAddress[theUserAddress].hf;\n        hashObj.store(theHash, thename, thetype);\n    }\n\n    function HashSetReturn(address theUserAddress) public view returns(HashFile.HashStruct[] memory) {\n        HashFile hashObj = UserAddress[theUserAddress].hf;\n        return hashObj.retrieve();\n    }\n\n}\n",
  "sourcePath": "/home/rusian/Documents/blockdev/contracts/users.sol",
  "compiler": {
    "name": "solc",
    "version": "0.5.16+commit.9c3226ce.Emscripten.clang"
  },
  "schemaVersion": "3.4.7",
  "updatedAt": "2022-07-13T18:34:48.196Z",
  "networkType": "ethereum",
  "devdoc": {
    "methods": {}
  },
  "userdoc": {
    "methods": {},
    "notice": "The Users contract saves users information. With hashing."
  }
}